{
	"contracts/MandalaSvg.sol": {
		"SvgRadialMandala": {
			"abi": [
				{
					"inputs": [],
					"name": "getSvg",
					"outputs": [
						{
							"internalType": "string",
							"name": "",
							"type": "string"
						}
					],
					"stateMutability": "view",
					"type": "function"
				},
				{
					"inputs": [],
					"name": "radialTemplatePtr",
					"outputs": [
						{
							"internalType": "address",
							"name": "",
							"type": "address"
						}
					],
					"stateMutability": "view",
					"type": "function"
				},
				{
					"inputs": [
						{
							"internalType": "bytes",
							"name": "data",
							"type": "bytes"
						}
					],
					"name": "storeTemplate",
					"outputs": [],
					"stateMutability": "nonpayable",
					"type": "function"
				}
			],
			"devdoc": {
				"kind": "dev",
				"methods": {},
				"version": 1
			},
			"evm": {
				"assembly": "    /* \"contracts/MandalaSvg.sol\":83:1336  contract SvgRadialMandala {... */\n  mstore(0x40, 0x80)\n  callvalue\n  dup1\n  iszero\n  tag_1\n  jumpi\n  0x00\n  dup1\n  revert\ntag_1:\n  pop\n  dataSize(sub_0)\n  dup1\n  dataOffset(sub_0)\n  0x00\n  codecopy\n  0x00\n  return\nstop\n\nsub_0: assembly {\n        /* \"contracts/MandalaSvg.sol\":83:1336  contract SvgRadialMandala {... */\n      mstore(0x40, 0x80)\n      callvalue\n      dup1\n      iszero\n      tag_1\n      jumpi\n      0x00\n      dup1\n      revert\n    tag_1:\n      pop\n      jumpi(tag_2, lt(calldatasize, 0x04))\n      shr(0xe0, calldataload(0x00))\n      dup1\n      0x4dcd342d\n      eq\n      tag_3\n      jumpi\n      dup1\n      0xd1859735\n      eq\n      tag_4\n      jumpi\n      dup1\n      0xff35b868\n      eq\n      tag_5\n      jumpi\n    tag_2:\n      0x00\n      dup1\n      revert\n        /* \"contracts/MandalaSvg.sol\":450:1334  function getSvg() public view returns (string memory) {... */\n    tag_3:\n      tag_6\n      tag_7\n      jump\t// in\n    tag_6:\n      mload(0x40)\n      tag_8\n      swap2\n      swap1\n      tag_9\n      jump\t// in\n    tag_8:\n      mload(0x40)\n      dup1\n      swap2\n      sub\n      swap1\n      return\n        /* \"contracts/MandalaSvg.sol\":236:341  function storeTemplate(bytes memory data) public {... */\n    tag_4:\n      tag_10\n      0x04\n      dup1\n      calldatasize\n      sub\n      dup2\n      add\n      swap1\n      tag_11\n      swap2\n      swap1\n      tag_12\n      jump\t// in\n    tag_11:\n      tag_13\n      jump\t// in\n    tag_10:\n      stop\n        /* \"contracts/MandalaSvg.sol\":115:147  address public radialTemplatePtr */\n    tag_5:\n      tag_14\n      tag_15\n      jump\t// in\n    tag_14:\n      mload(0x40)\n      tag_16\n      swap2\n      swap1\n      tag_17\n      jump\t// in\n    tag_16:\n      mload(0x40)\n      dup1\n      swap2\n      sub\n      swap1\n      return\n        /* \"contracts/MandalaSvg.sol\":450:1334  function getSvg() public view returns (string memory) {... */\n    tag_7:\n        /* \"contracts/MandalaSvg.sol\":489:502  string memory */\n      0x60\n        /* \"contracts/MandalaSvg.sol\":514:530  bytes memory raw */\n      0x00\n        /* \"contracts/MandalaSvg.sol\":533:564  SSTORE2.read(radialTemplatePtr) */\n      tag_19\n        /* \"contracts/MandalaSvg.sol\":546:563  radialTemplatePtr */\n      0x00\n      dup1\n      sload\n      swap1\n      0x0100\n      exp\n      swap1\n      div\n      0xffffffffffffffffffffffffffffffffffffffff\n      and\n        /* \"contracts/MandalaSvg.sol\":533:545  SSTORE2.read */\n      tag_20\n        /* \"contracts/MandalaSvg.sol\":533:564  SSTORE2.read(radialTemplatePtr) */\n      jump\t// in\n    tag_19:\n        /* \"contracts/MandalaSvg.sol\":514:564  bytes memory raw = SSTORE2.read(radialTemplatePtr) */\n      swap1\n      pop\n        /* \"contracts/MandalaSvg.sol\":574:594  bytes memory pattern */\n      0x00\n        /* \"contracts/MandalaSvg.sol\":597:618  bytes(\"fill='black'\") */\n      mload(0x40)\n      dup1\n      0x40\n      add\n      0x40\n      mstore\n      dup1\n      0x0c\n      dup2\n      mstore\n      0x20\n      add\n      0x66696c6c3d27626c61636b270000000000000000000000000000000000000000\n      dup2\n      mstore\n      pop\n        /* \"contracts/MandalaSvg.sol\":574:618  bytes memory pattern = bytes(\"fill='black'\") */\n      swap1\n      pop\n        /* \"contracts/MandalaSvg.sol\":628:652  bytes memory replacement */\n      0x00\n        /* \"contracts/MandalaSvg.sol\":655:676  bytes(\"fill='white'\") */\n      mload(0x40)\n      dup1\n      0x40\n      add\n      0x40\n      mstore\n      dup1\n      0x0c\n      dup2\n      mstore\n      0x20\n      add\n      0x66696c6c3d277768697465270000000000000000000000000000000000000000\n      dup2\n      mstore\n      pop\n        /* \"contracts/MandalaSvg.sol\":628:676  bytes memory replacement = bytes(\"fill='white'\") */\n      swap1\n      pop\n        /* \"contracts/MandalaSvg.sol\":795:804  uint256 i */\n      0x00\n        /* \"contracts/MandalaSvg.sol\":790:1299  for (uint256 i = 0; i <= raw.length - pattern.length; i++) {... */\n    tag_21:\n        /* \"contracts/MandalaSvg.sol\":828:835  pattern */\n      dup3\n        /* \"contracts/MandalaSvg.sol\":828:842  pattern.length */\n      mload\n        /* \"contracts/MandalaSvg.sol\":815:818  raw */\n      dup5\n        /* \"contracts/MandalaSvg.sol\":815:825  raw.length */\n      mload\n        /* \"contracts/MandalaSvg.sol\":815:842  raw.length - pattern.length */\n      tag_24\n      swap2\n      swap1\n      tag_25\n      jump\t// in\n    tag_24:\n        /* \"contracts/MandalaSvg.sol\":810:811  i */\n      dup2\n        /* \"contracts/MandalaSvg.sol\":810:842  i <= raw.length - pattern.length */\n      gt\n        /* \"contracts/MandalaSvg.sol\":790:1299  for (uint256 i = 0; i <= raw.length - pattern.length; i++) {... */\n      tag_22\n      jumpi\n        /* \"contracts/MandalaSvg.sol\":863:878  bool matchFound */\n      0x00\n        /* \"contracts/MandalaSvg.sol\":881:885  true */\n      0x01\n        /* \"contracts/MandalaSvg.sol\":863:885  bool matchFound = true */\n      swap1\n      pop\n        /* \"contracts/MandalaSvg.sol\":904:913  uint256 j */\n      0x00\n        /* \"contracts/MandalaSvg.sol\":899:1092  for (uint256 j = 0; j < pattern.length; j++) {... */\n    tag_26:\n        /* \"contracts/MandalaSvg.sol\":923:930  pattern */\n      dup5\n        /* \"contracts/MandalaSvg.sol\":923:937  pattern.length */\n      mload\n        /* \"contracts/MandalaSvg.sol\":919:920  j */\n      dup2\n        /* \"contracts/MandalaSvg.sol\":919:937  j < pattern.length */\n      lt\n        /* \"contracts/MandalaSvg.sol\":899:1092  for (uint256 j = 0; j < pattern.length; j++) {... */\n      iszero\n      tag_27\n      jumpi\n        /* \"contracts/MandalaSvg.sol\":980:987  pattern */\n      dup5\n        /* \"contracts/MandalaSvg.sol\":988:989  j */\n      dup2\n        /* \"contracts/MandalaSvg.sol\":980:990  pattern[j] */\n      dup2\n      mload\n      dup2\n      lt\n      tag_29\n      jumpi\n      tag_30\n      tag_31\n      jump\t// in\n    tag_30:\n    tag_29:\n      0x20\n      add\n      add\n      mload\n      0xf8\n      shr\n      0xf8\n      shl\n        /* \"contracts/MandalaSvg.sol\":966:990  raw[i + j] != pattern[j] */\n      not(0xffffffffffffffffffffffffffffffffffffffffffffffffffffffffffffff)\n      and\n        /* \"contracts/MandalaSvg.sol\":966:969  raw */\n      dup7\n        /* \"contracts/MandalaSvg.sol\":974:975  j */\n      dup3\n        /* \"contracts/MandalaSvg.sol\":970:971  i */\n      dup6\n        /* \"contracts/MandalaSvg.sol\":970:975  i + j */\n      tag_32\n      swap2\n      swap1\n      tag_33\n      jump\t// in\n    tag_32:\n        /* \"contracts/MandalaSvg.sol\":966:976  raw[i + j] */\n      dup2\n      mload\n      dup2\n      lt\n      tag_34\n      jumpi\n      tag_35\n      tag_31\n      jump\t// in\n    tag_35:\n    tag_34:\n      0x20\n      add\n      add\n      mload\n      0xf8\n      shr\n      0xf8\n      shl\n        /* \"contracts/MandalaSvg.sol\":966:990  raw[i + j] != pattern[j] */\n      not(0xffffffffffffffffffffffffffffffffffffffffffffffffffffffffffffff)\n      and\n      eq\n        /* \"contracts/MandalaSvg.sol\":962:1078  if (raw[i + j] != pattern[j]) {... */\n      tag_36\n      jumpi\n        /* \"contracts/MandalaSvg.sol\":1027:1032  false */\n      0x00\n        /* \"contracts/MandalaSvg.sol\":1014:1032  matchFound = false */\n      swap2\n      pop\n        /* \"contracts/MandalaSvg.sol\":1054:1059  break */\n      jump(tag_27)\n        /* \"contracts/MandalaSvg.sol\":962:1078  if (raw[i + j] != pattern[j]) {... */\n    tag_36:\n        /* \"contracts/MandalaSvg.sol\":939:942  j++ */\n      dup1\n      dup1\n      0x01\n      add\n      swap2\n      pop\n      pop\n        /* \"contracts/MandalaSvg.sol\":899:1092  for (uint256 j = 0; j < pattern.length; j++) {... */\n      jump(tag_26)\n    tag_27:\n      pop\n        /* \"contracts/MandalaSvg.sol\":1109:1119  matchFound */\n      dup1\n        /* \"contracts/MandalaSvg.sol\":1105:1289  if (matchFound) {... */\n      iszero\n      tag_37\n      jumpi\n        /* \"contracts/MandalaSvg.sol\":1144:1153  uint256 j */\n      0x00\n        /* \"contracts/MandalaSvg.sol\":1139:1252  for (uint256 j = 0; j < pattern.length; j++) {... */\n    tag_38:\n        /* \"contracts/MandalaSvg.sol\":1163:1170  pattern */\n      dup5\n        /* \"contracts/MandalaSvg.sol\":1163:1177  pattern.length */\n      mload\n        /* \"contracts/MandalaSvg.sol\":1159:1160  j */\n      dup2\n        /* \"contracts/MandalaSvg.sol\":1159:1177  j < pattern.length */\n      lt\n        /* \"contracts/MandalaSvg.sol\":1139:1252  for (uint256 j = 0; j < pattern.length; j++) {... */\n      iszero\n      tag_39\n      jumpi\n        /* \"contracts/MandalaSvg.sol\":1219:1230  replacement */\n      dup4\n        /* \"contracts/MandalaSvg.sol\":1231:1232  j */\n      dup2\n        /* \"contracts/MandalaSvg.sol\":1219:1233  replacement[j] */\n      dup2\n      mload\n      dup2\n      lt\n      tag_41\n      jumpi\n      tag_42\n      tag_31\n      jump\t// in\n    tag_42:\n    tag_41:\n      0x20\n      add\n      add\n      mload\n      0xf8\n      shr\n      0xf8\n      shl\n        /* \"contracts/MandalaSvg.sol\":1206:1209  raw */\n      dup7\n        /* \"contracts/MandalaSvg.sol\":1214:1215  j */\n      dup3\n        /* \"contracts/MandalaSvg.sol\":1210:1211  i */\n      dup6\n        /* \"contracts/MandalaSvg.sol\":1210:1215  i + j */\n      tag_43\n      swap2\n      swap1\n      tag_33\n      jump\t// in\n    tag_43:\n        /* \"contracts/MandalaSvg.sol\":1206:1216  raw[i + j] */\n      dup2\n      mload\n      dup2\n      lt\n      tag_44\n      jumpi\n      tag_45\n      tag_31\n      jump\t// in\n    tag_45:\n    tag_44:\n      0x20\n      add\n      add\n        /* \"contracts/MandalaSvg.sol\":1206:1233  raw[i + j] = replacement[j] */\n      swap1\n      not(0xffffffffffffffffffffffffffffffffffffffffffffffffffffffffffffff)\n      and\n      swap1\n      dup2\n      0x00\n      byte\n      swap1\n      mstore8\n      pop\n        /* \"contracts/MandalaSvg.sol\":1179:1182  j++ */\n      dup1\n      dup1\n      0x01\n      add\n      swap2\n      pop\n      pop\n        /* \"contracts/MandalaSvg.sol\":1139:1252  for (uint256 j = 0; j < pattern.length; j++) {... */\n      jump(tag_38)\n    tag_39:\n      pop\n        /* \"contracts/MandalaSvg.sol\":1269:1274  break */\n      pop\n      jump(tag_22)\n        /* \"contracts/MandalaSvg.sol\":1105:1289  if (matchFound) {... */\n    tag_37:\n        /* \"contracts/MandalaSvg.sol\":849:1299  {... */\n      pop\n        /* \"contracts/MandalaSvg.sol\":844:847  i++ */\n      dup1\n      dup1\n      tag_46\n      swap1\n      tag_47\n      jump\t// in\n    tag_46:\n      swap2\n      pop\n      pop\n        /* \"contracts/MandalaSvg.sol\":790:1299  for (uint256 i = 0; i <= raw.length - pattern.length; i++) {... */\n      jump(tag_21)\n    tag_22:\n      pop\n        /* \"contracts/MandalaSvg.sol\":1323:1326  raw */\n      dup3\n        /* \"contracts/MandalaSvg.sol\":1309:1327  return string(raw) */\n      swap4\n      pop\n      pop\n      pop\n      pop\n        /* \"contracts/MandalaSvg.sol\":450:1334  function getSvg() public view returns (string memory) {... */\n      swap1\n      jump\t// out\n        /* \"contracts/MandalaSvg.sol\":236:341  function storeTemplate(bytes memory data) public {... */\n    tag_13:\n        /* \"contracts/MandalaSvg.sol\":315:334  SSTORE2.write(data) */\n      tag_49\n        /* \"contracts/MandalaSvg.sol\":329:333  data */\n      dup2\n        /* \"contracts/MandalaSvg.sol\":315:328  SSTORE2.write */\n      tag_50\n        /* \"contracts/MandalaSvg.sol\":315:334  SSTORE2.write(data) */\n      jump\t// in\n    tag_49:\n        /* \"contracts/MandalaSvg.sol\":295:312  radialTemplatePtr */\n      0x00\n      dup1\n        /* \"contracts/MandalaSvg.sol\":295:334  radialTemplatePtr = SSTORE2.write(data) */\n      0x0100\n      exp\n      dup2\n      sload\n      dup2\n      0xffffffffffffffffffffffffffffffffffffffff\n      mul\n      not\n      and\n      swap1\n      dup4\n      0xffffffffffffffffffffffffffffffffffffffff\n      and\n      mul\n      or\n      swap1\n      sstore\n      pop\n        /* \"contracts/MandalaSvg.sol\":236:341  function storeTemplate(bytes memory data) public {... */\n      pop\n      jump\t// out\n        /* \"contracts/MandalaSvg.sol\":115:147  address public radialTemplatePtr */\n    tag_15:\n      0x00\n      dup1\n      sload\n      swap1\n      0x0100\n      exp\n      swap1\n      div\n      0xffffffffffffffffffffffffffffffffffffffff\n      and\n      dup2\n      jump\t// out\n        /* \"contracts/SSTORE2.sol\":3593:3754  function read(address pointer) internal view returns (bytes memory) {... */\n    tag_20:\n        /* \"contracts/SSTORE2.sol\":3647:3659  bytes memory */\n      0x60\n        /* \"contracts/SSTORE2.sol\":3678:3747  readBytecode(pointer, DATA_OFFSET, pointer.code.length - DATA_OFFSET) */\n      tag_52\n        /* \"contracts/SSTORE2.sol\":3691:3698  pointer */\n      dup3\n        /* \"contracts/SSTORE2.sol\":416:417  1 */\n      0x01\n      dup1\n        /* \"contracts/SSTORE2.sol\":3713:3720  pointer */\n      dup6\n        /* \"contracts/SSTORE2.sol\":3713:3732  pointer.code.length */\n      0xffffffffffffffffffffffffffffffffffffffff\n      and\n      extcodesize\n        /* \"contracts/SSTORE2.sol\":3713:3746  pointer.code.length - DATA_OFFSET */\n      tag_53\n      swap2\n      swap1\n      tag_25\n      jump\t// in\n    tag_53:\n        /* \"contracts/SSTORE2.sol\":3678:3690  readBytecode */\n      tag_54\n        /* \"contracts/SSTORE2.sol\":3678:3747  readBytecode(pointer, DATA_OFFSET, pointer.code.length - DATA_OFFSET) */\n      jump\t// in\n    tag_52:\n        /* \"contracts/SSTORE2.sol\":3671:3747  return readBytecode(pointer, DATA_OFFSET, pointer.code.length - DATA_OFFSET) */\n      swap1\n      pop\n        /* \"contracts/SSTORE2.sol\":3593:3754  function read(address pointer) internal view returns (bytes memory) {... */\n      swap2\n      swap1\n      pop\n      jump\t// out\n        /* \"contracts/SSTORE2.sol\":694:3406  function write(bytes memory data) internal returns (address pointer) {... */\n    tag_50:\n        /* \"contracts/SSTORE2.sol\":746:761  address pointer */\n      0x00\n        /* \"contracts/SSTORE2.sol\":854:878  bytes memory runtimeCode */\n      dup1\n        /* \"contracts/SSTORE2.sol\":907:911  data */\n      dup3\n        /* \"contracts/SSTORE2.sol\":881:912  abi.encodePacked(hex\"00\", data) */\n      add(0x20, mload(0x40))\n      tag_56\n      swap2\n      swap1\n      tag_57\n      jump\t// in\n    tag_56:\n      mload(0x40)\n      0x20\n      dup2\n      dup4\n      sub\n      sub\n      dup2\n      mstore\n      swap1\n      0x40\n      mstore\n        /* \"contracts/SSTORE2.sol\":854:912  bytes memory runtimeCode = abi.encodePacked(hex\"00\", data) */\n      swap1\n      pop\n        /* \"contracts/SSTORE2.sol\":923:948  bytes memory creationCode */\n      0x00\n        /* \"contracts/SSTORE2.sol\":2903:2914  runtimeCode */\n      dup2\n        /* \"contracts/SSTORE2.sol\":951:3035  abi.encodePacked(... */\n      add(0x20, mload(0x40))\n      tag_58\n      swap2\n      swap1\n      tag_59\n      jump\t// in\n    tag_58:\n      mload(0x40)\n      0x20\n      dup2\n      dup4\n      sub\n      sub\n      dup2\n      mstore\n      swap1\n      0x40\n      mstore\n        /* \"contracts/SSTORE2.sol\":923:3035  bytes memory creationCode = abi.encodePacked(... */\n      swap1\n      pop\n        /* \"contracts/SSTORE2.sol\":3314:3326  creationCode */\n      dup1\n        /* \"contracts/SSTORE2.sol\":3308:3327  mload(creationCode) */\n      mload\n        /* \"contracts/SSTORE2.sol\":3303:3305  32 */\n      0x20\n        /* \"contracts/SSTORE2.sol\":3289:3301  creationCode */\n      dup3\n        /* \"contracts/SSTORE2.sol\":3285:3306  add(creationCode, 32) */\n      add\n        /* \"contracts/SSTORE2.sol\":3282:3283  0 */\n      0x00\n        /* \"contracts/SSTORE2.sol\":3275:3328  create(0, add(creationCode, 32), mload(creationCode)) */\n      create\n        /* \"contracts/SSTORE2.sol\":3264:3328  pointer := create(0, add(creationCode, 32), mload(creationCode)) */\n      swap3\n      pop\n        /* \"contracts/SSTORE2.sol\":3375:3376  0 */\n      0x00\n        /* \"contracts/SSTORE2.sol\":3356:3377  pointer != address(0) */\n      0xffffffffffffffffffffffffffffffffffffffff\n      and\n        /* \"contracts/SSTORE2.sol\":3356:3363  pointer */\n      dup4\n        /* \"contracts/SSTORE2.sol\":3356:3377  pointer != address(0) */\n      0xffffffffffffffffffffffffffffffffffffffff\n      and\n      sub\n        /* \"contracts/SSTORE2.sol\":3348:3399  require(pointer != address(0), \"DEPLOYMENT_FAILED\") */\n      tag_60\n      jumpi\n      mload(0x40)\n      0x08c379a000000000000000000000000000000000000000000000000000000000\n      dup2\n      mstore\n      0x04\n      add\n      tag_61\n      swap1\n      tag_62\n      jump\t// in\n    tag_61:\n      mload(0x40)\n      dup1\n      swap2\n      sub\n      swap1\n      revert\n    tag_60:\n        /* \"contracts/SSTORE2.sol\":763:3406  {... */\n      pop\n      pop\n        /* \"contracts/SSTORE2.sol\":694:3406  function write(bytes memory data) internal returns (address pointer) {... */\n      swap2\n      swap1\n      pop\n      jump\t// out\n        /* \"contracts/SSTORE2.sol\":4467:5456  function readBytecode(... */\n    tag_54:\n        /* \"contracts/SSTORE2.sol\":4587:4604  bytes memory data */\n      0x60\n        /* \"contracts/SSTORE2.sol\":4746:4750  0x40 */\n      0x40\n        /* \"contracts/SSTORE2.sol\":4740:4751  mload(0x40) */\n      mload\n        /* \"contracts/SSTORE2.sol\":4732:4751  data := mload(0x40) */\n      swap1\n      pop\n        /* \"contracts/SSTORE2.sol\":5162:5164  31 */\n      0x1f\n        /* \"contracts/SSTORE2.sol\":5158:5165  not(31) */\n      not\n        /* \"contracts/SSTORE2.sol\":5153:5155  31 */\n      0x1f\n        /* \"contracts/SSTORE2.sol\":5148:5150  32 */\n      0x20\n        /* \"contracts/SSTORE2.sol\":5142:5146  size */\n      dup5\n        /* \"contracts/SSTORE2.sol\":5138:5151  add(size, 32) */\n      add\n        /* \"contracts/SSTORE2.sol\":5134:5156  add(add(size, 32), 31) */\n      add\n        /* \"contracts/SSTORE2.sol\":5130:5166  and(add(add(size, 32), 31), not(31)) */\n      and\n        /* \"contracts/SSTORE2.sol\":5124:5128  data */\n      dup2\n        /* \"contracts/SSTORE2.sol\":5120:5167  add(data, and(add(add(size, 32), 31), not(31))) */\n      add\n        /* \"contracts/SSTORE2.sol\":5114:5118  0x40 */\n      0x40\n        /* \"contracts/SSTORE2.sol\":5107:5168  mstore(0x40, add(data, and(add(add(size, 32), 31), not(31)))) */\n      mstore\n        /* \"contracts/SSTORE2.sol\":5280:5284  size */\n      dup2\n        /* \"contracts/SSTORE2.sol\":5274:5278  data */\n      dup2\n        /* \"contracts/SSTORE2.sol\":5267:5285  mstore(data, size) */\n      mstore\n        /* \"contracts/SSTORE2.sol\":5435:5439  size */\n      dup2\n        /* \"contracts/SSTORE2.sol\":5428:5433  start */\n      dup4\n        /* \"contracts/SSTORE2.sol\":5423:5425  32 */\n      0x20\n        /* \"contracts/SSTORE2.sol\":5417:5421  data */\n      dup4\n        /* \"contracts/SSTORE2.sol\":5413:5426  add(data, 32) */\n      add\n        /* \"contracts/SSTORE2.sol\":5404:5411  pointer */\n      dup7\n        /* \"contracts/SSTORE2.sol\":5392:5440  extcodecopy(pointer, add(data, 32), start, size) */\n      extcodecopy\n        /* \"contracts/SSTORE2.sol\":4467:5456  function readBytecode(... */\n      swap4\n      swap3\n      pop\n      pop\n      pop\n      jump\t// out\n        /* \"#utility.yul\":7:106   */\n    tag_64:\n        /* \"#utility.yul\":59:65   */\n      0x00\n        /* \"#utility.yul\":93:98   */\n      dup2\n        /* \"#utility.yul\":87:99   */\n      mload\n        /* \"#utility.yul\":77:99   */\n      swap1\n      pop\n        /* \"#utility.yul\":7:106   */\n      swap2\n      swap1\n      pop\n      jump\t// out\n        /* \"#utility.yul\":112:281   */\n    tag_65:\n        /* \"#utility.yul\":196:207   */\n      0x00\n        /* \"#utility.yul\":230:236   */\n      dup3\n        /* \"#utility.yul\":225:228   */\n      dup3\n        /* \"#utility.yul\":218:237   */\n      mstore\n        /* \"#utility.yul\":270:274   */\n      0x20\n        /* \"#utility.yul\":265:268   */\n      dup3\n        /* \"#utility.yul\":261:275   */\n      add\n        /* \"#utility.yul\":246:275   */\n      swap1\n      pop\n        /* \"#utility.yul\":112:281   */\n      swap3\n      swap2\n      pop\n      pop\n      jump\t// out\n        /* \"#utility.yul\":287:426   */\n    tag_66:\n        /* \"#utility.yul\":376:382   */\n      dup3\n        /* \"#utility.yul\":371:374   */\n      dup2\n        /* \"#utility.yul\":366:369   */\n      dup4\n        /* \"#utility.yul\":360:383   */\n      mcopy\n        /* \"#utility.yul\":417:418   */\n      0x00\n        /* \"#utility.yul\":408:414   */\n      dup4\n        /* \"#utility.yul\":403:406   */\n      dup4\n        /* \"#utility.yul\":399:415   */\n      add\n        /* \"#utility.yul\":392:419   */\n      mstore\n        /* \"#utility.yul\":287:426   */\n      pop\n      pop\n      pop\n      jump\t// out\n        /* \"#utility.yul\":432:534   */\n    tag_67:\n        /* \"#utility.yul\":473:479   */\n      0x00\n        /* \"#utility.yul\":524:526   */\n      0x1f\n        /* \"#utility.yul\":520:527   */\n      not\n        /* \"#utility.yul\":515:517   */\n      0x1f\n        /* \"#utility.yul\":508:513   */\n      dup4\n        /* \"#utility.yul\":504:518   */\n      add\n        /* \"#utility.yul\":500:528   */\n      and\n        /* \"#utility.yul\":490:528   */\n      swap1\n      pop\n        /* \"#utility.yul\":432:534   */\n      swap2\n      swap1\n      pop\n      jump\t// out\n        /* \"#utility.yul\":540:917   */\n    tag_68:\n        /* \"#utility.yul\":628:631   */\n      0x00\n        /* \"#utility.yul\":656:695   */\n      tag_102\n        /* \"#utility.yul\":689:694   */\n      dup3\n        /* \"#utility.yul\":656:695   */\n      tag_64\n      jump\t// in\n    tag_102:\n        /* \"#utility.yul\":711:782   */\n      tag_103\n        /* \"#utility.yul\":775:781   */\n      dup2\n        /* \"#utility.yul\":770:773   */\n      dup6\n        /* \"#utility.yul\":711:782   */\n      tag_65\n      jump\t// in\n    tag_103:\n        /* \"#utility.yul\":704:782   */\n      swap4\n      pop\n        /* \"#utility.yul\":791:856   */\n      tag_104\n        /* \"#utility.yul\":849:855   */\n      dup2\n        /* \"#utility.yul\":844:847   */\n      dup6\n        /* \"#utility.yul\":837:841   */\n      0x20\n        /* \"#utility.yul\":830:835   */\n      dup7\n        /* \"#utility.yul\":826:842   */\n      add\n        /* \"#utility.yul\":791:856   */\n      tag_66\n      jump\t// in\n    tag_104:\n        /* \"#utility.yul\":881:910   */\n      tag_105\n        /* \"#utility.yul\":903:909   */\n      dup2\n        /* \"#utility.yul\":881:910   */\n      tag_67\n      jump\t// in\n    tag_105:\n        /* \"#utility.yul\":876:879   */\n      dup5\n        /* \"#utility.yul\":872:911   */\n      add\n        /* \"#utility.yul\":865:911   */\n      swap2\n      pop\n        /* \"#utility.yul\":632:917   */\n      pop\n        /* \"#utility.yul\":540:917   */\n      swap3\n      swap2\n      pop\n      pop\n      jump\t// out\n        /* \"#utility.yul\":923:1236   */\n    tag_9:\n        /* \"#utility.yul\":1036:1040   */\n      0x00\n        /* \"#utility.yul\":1074:1076   */\n      0x20\n        /* \"#utility.yul\":1063:1072   */\n      dup3\n        /* \"#utility.yul\":1059:1077   */\n      add\n        /* \"#utility.yul\":1051:1077   */\n      swap1\n      pop\n        /* \"#utility.yul\":1123:1132   */\n      dup2\n        /* \"#utility.yul\":1117:1121   */\n      dup2\n        /* \"#utility.yul\":1113:1133   */\n      sub\n        /* \"#utility.yul\":1109:1110   */\n      0x00\n        /* \"#utility.yul\":1098:1107   */\n      dup4\n        /* \"#utility.yul\":1094:1111   */\n      add\n        /* \"#utility.yul\":1087:1134   */\n      mstore\n        /* \"#utility.yul\":1151:1229   */\n      tag_107\n        /* \"#utility.yul\":1224:1228   */\n      dup2\n        /* \"#utility.yul\":1215:1221   */\n      dup5\n        /* \"#utility.yul\":1151:1229   */\n      tag_68\n      jump\t// in\n    tag_107:\n        /* \"#utility.yul\":1143:1229   */\n      swap1\n      pop\n        /* \"#utility.yul\":923:1236   */\n      swap3\n      swap2\n      pop\n      pop\n      jump\t// out\n        /* \"#utility.yul\":1242:1317   */\n    tag_69:\n        /* \"#utility.yul\":1275:1281   */\n      0x00\n        /* \"#utility.yul\":1308:1310   */\n      0x40\n        /* \"#utility.yul\":1302:1311   */\n      mload\n        /* \"#utility.yul\":1292:1311   */\n      swap1\n      pop\n        /* \"#utility.yul\":1242:1317   */\n      swap1\n      jump\t// out\n        /* \"#utility.yul\":1323:1440   */\n    tag_70:\n        /* \"#utility.yul\":1432:1433   */\n      0x00\n        /* \"#utility.yul\":1429:1430   */\n      dup1\n        /* \"#utility.yul\":1422:1434   */\n      revert\n        /* \"#utility.yul\":1446:1563   */\n    tag_71:\n        /* \"#utility.yul\":1555:1556   */\n      0x00\n        /* \"#utility.yul\":1552:1553   */\n      dup1\n        /* \"#utility.yul\":1545:1557   */\n      revert\n        /* \"#utility.yul\":1569:1686   */\n    tag_72:\n        /* \"#utility.yul\":1678:1679   */\n      0x00\n        /* \"#utility.yul\":1675:1676   */\n      dup1\n        /* \"#utility.yul\":1668:1680   */\n      revert\n        /* \"#utility.yul\":1692:1809   */\n    tag_73:\n        /* \"#utility.yul\":1801:1802   */\n      0x00\n        /* \"#utility.yul\":1798:1799   */\n      dup1\n        /* \"#utility.yul\":1791:1803   */\n      revert\n        /* \"#utility.yul\":1815:1995   */\n    tag_74:\n        /* \"#utility.yul\":1863:1940   */\n      0x4e487b7100000000000000000000000000000000000000000000000000000000\n        /* \"#utility.yul\":1860:1861   */\n      0x00\n        /* \"#utility.yul\":1853:1941   */\n      mstore\n        /* \"#utility.yul\":1960:1964   */\n      0x41\n        /* \"#utility.yul\":1957:1958   */\n      0x04\n        /* \"#utility.yul\":1950:1965   */\n      mstore\n        /* \"#utility.yul\":1984:1988   */\n      0x24\n        /* \"#utility.yul\":1981:1982   */\n      0x00\n        /* \"#utility.yul\":1974:1989   */\n      revert\n        /* \"#utility.yul\":2001:2282   */\n    tag_75:\n        /* \"#utility.yul\":2084:2111   */\n      tag_115\n        /* \"#utility.yul\":2106:2110   */\n      dup3\n        /* \"#utility.yul\":2084:2111   */\n      tag_67\n      jump\t// in\n    tag_115:\n        /* \"#utility.yul\":2076:2082   */\n      dup2\n        /* \"#utility.yul\":2072:2112   */\n      add\n        /* \"#utility.yul\":2214:2220   */\n      dup2\n        /* \"#utility.yul\":2202:2212   */\n      dup2\n        /* \"#utility.yul\":2199:2221   */\n      lt\n        /* \"#utility.yul\":2178:2196   */\n      0xffffffffffffffff\n        /* \"#utility.yul\":2166:2176   */\n      dup3\n        /* \"#utility.yul\":2163:2197   */\n      gt\n        /* \"#utility.yul\":2160:2222   */\n      or\n        /* \"#utility.yul\":2157:2245   */\n      iszero\n      tag_116\n      jumpi\n        /* \"#utility.yul\":2225:2243   */\n      tag_117\n      tag_74\n      jump\t// in\n    tag_117:\n        /* \"#utility.yul\":2157:2245   */\n    tag_116:\n        /* \"#utility.yul\":2265:2275   */\n      dup1\n        /* \"#utility.yul\":2261:2263   */\n      0x40\n        /* \"#utility.yul\":2254:2276   */\n      mstore\n        /* \"#utility.yul\":2044:2282   */\n      pop\n        /* \"#utility.yul\":2001:2282   */\n      pop\n      pop\n      jump\t// out\n        /* \"#utility.yul\":2288:2417   */\n    tag_76:\n        /* \"#utility.yul\":2322:2328   */\n      0x00\n        /* \"#utility.yul\":2349:2369   */\n      tag_119\n      tag_69\n      jump\t// in\n    tag_119:\n        /* \"#utility.yul\":2339:2369   */\n      swap1\n      pop\n        /* \"#utility.yul\":2378:2411   */\n      tag_120\n        /* \"#utility.yul\":2406:2410   */\n      dup3\n        /* \"#utility.yul\":2398:2404   */\n      dup3\n        /* \"#utility.yul\":2378:2411   */\n      tag_75\n      jump\t// in\n    tag_120:\n        /* \"#utility.yul\":2288:2417   */\n      swap2\n      swap1\n      pop\n      jump\t// out\n        /* \"#utility.yul\":2423:2730   */\n    tag_77:\n        /* \"#utility.yul\":2484:2488   */\n      0x00\n        /* \"#utility.yul\":2574:2592   */\n      0xffffffffffffffff\n        /* \"#utility.yul\":2566:2572   */\n      dup3\n        /* \"#utility.yul\":2563:2593   */\n      gt\n        /* \"#utility.yul\":2560:2616   */\n      iszero\n      tag_122\n      jumpi\n        /* \"#utility.yul\":2596:2614   */\n      tag_123\n      tag_74\n      jump\t// in\n    tag_123:\n        /* \"#utility.yul\":2560:2616   */\n    tag_122:\n        /* \"#utility.yul\":2634:2663   */\n      tag_124\n        /* \"#utility.yul\":2656:2662   */\n      dup3\n        /* \"#utility.yul\":2634:2663   */\n      tag_67\n      jump\t// in\n    tag_124:\n        /* \"#utility.yul\":2626:2663   */\n      swap1\n      pop\n        /* \"#utility.yul\":2718:2722   */\n      0x20\n        /* \"#utility.yul\":2712:2716   */\n      dup2\n        /* \"#utility.yul\":2708:2723   */\n      add\n        /* \"#utility.yul\":2700:2723   */\n      swap1\n      pop\n        /* \"#utility.yul\":2423:2730   */\n      swap2\n      swap1\n      pop\n      jump\t// out\n        /* \"#utility.yul\":2736:2884   */\n    tag_78:\n        /* \"#utility.yul\":2834:2840   */\n      dup3\n        /* \"#utility.yul\":2829:2832   */\n      dup2\n        /* \"#utility.yul\":2824:2827   */\n      dup4\n        /* \"#utility.yul\":2811:2841   */\n      calldatacopy\n        /* \"#utility.yul\":2875:2876   */\n      0x00\n        /* \"#utility.yul\":2866:2872   */\n      dup4\n        /* \"#utility.yul\":2861:2864   */\n      dup4\n        /* \"#utility.yul\":2857:2873   */\n      add\n        /* \"#utility.yul\":2850:2877   */\n      mstore\n        /* \"#utility.yul\":2736:2884   */\n      pop\n      pop\n      pop\n      jump\t// out\n        /* \"#utility.yul\":2890:3313   */\n    tag_79:\n        /* \"#utility.yul\":2967:2972   */\n      0x00\n        /* \"#utility.yul\":2992:3057   */\n      tag_127\n        /* \"#utility.yul\":3008:3056   */\n      tag_128\n        /* \"#utility.yul\":3049:3055   */\n      dup5\n        /* \"#utility.yul\":3008:3056   */\n      tag_77\n      jump\t// in\n    tag_128:\n        /* \"#utility.yul\":2992:3057   */\n      tag_76\n      jump\t// in\n    tag_127:\n        /* \"#utility.yul\":2983:3057   */\n      swap1\n      pop\n        /* \"#utility.yul\":3080:3086   */\n      dup3\n        /* \"#utility.yul\":3073:3078   */\n      dup2\n        /* \"#utility.yul\":3066:3087   */\n      mstore\n        /* \"#utility.yul\":3118:3122   */\n      0x20\n        /* \"#utility.yul\":3111:3116   */\n      dup2\n        /* \"#utility.yul\":3107:3123   */\n      add\n        /* \"#utility.yul\":3156:3159   */\n      dup5\n        /* \"#utility.yul\":3147:3153   */\n      dup5\n        /* \"#utility.yul\":3142:3145   */\n      dup5\n        /* \"#utility.yul\":3138:3154   */\n      add\n        /* \"#utility.yul\":3135:3160   */\n      gt\n        /* \"#utility.yul\":3132:3244   */\n      iszero\n      tag_129\n      jumpi\n        /* \"#utility.yul\":3163:3242   */\n      tag_130\n      tag_73\n      jump\t// in\n    tag_130:\n        /* \"#utility.yul\":3132:3244   */\n    tag_129:\n        /* \"#utility.yul\":3253:3307   */\n      tag_131\n        /* \"#utility.yul\":3300:3306   */\n      dup5\n        /* \"#utility.yul\":3295:3298   */\n      dup3\n        /* \"#utility.yul\":3290:3293   */\n      dup6\n        /* \"#utility.yul\":3253:3307   */\n      tag_78\n      jump\t// in\n    tag_131:\n        /* \"#utility.yul\":2973:3313   */\n      pop\n        /* \"#utility.yul\":2890:3313   */\n      swap4\n      swap3\n      pop\n      pop\n      pop\n      jump\t// out\n        /* \"#utility.yul\":3332:3670   */\n    tag_80:\n        /* \"#utility.yul\":3387:3392   */\n      0x00\n        /* \"#utility.yul\":3436:3439   */\n      dup3\n        /* \"#utility.yul\":3429:3433   */\n      0x1f\n        /* \"#utility.yul\":3421:3427   */\n      dup4\n        /* \"#utility.yul\":3417:3434   */\n      add\n        /* \"#utility.yul\":3413:3440   */\n      slt\n        /* \"#utility.yul\":3403:3525   */\n      tag_133\n      jumpi\n        /* \"#utility.yul\":3444:3523   */\n      tag_134\n      tag_72\n      jump\t// in\n    tag_134:\n        /* \"#utility.yul\":3403:3525   */\n    tag_133:\n        /* \"#utility.yul\":3561:3567   */\n      dup2\n        /* \"#utility.yul\":3548:3568   */\n      calldataload\n        /* \"#utility.yul\":3586:3664   */\n      tag_135\n        /* \"#utility.yul\":3660:3663   */\n      dup5\n        /* \"#utility.yul\":3652:3658   */\n      dup3\n        /* \"#utility.yul\":3645:3649   */\n      0x20\n        /* \"#utility.yul\":3637:3643   */\n      dup7\n        /* \"#utility.yul\":3633:3650   */\n      add\n        /* \"#utility.yul\":3586:3664   */\n      tag_79\n      jump\t// in\n    tag_135:\n        /* \"#utility.yul\":3577:3664   */\n      swap2\n      pop\n        /* \"#utility.yul\":3393:3670   */\n      pop\n        /* \"#utility.yul\":3332:3670   */\n      swap3\n      swap2\n      pop\n      pop\n      jump\t// out\n        /* \"#utility.yul\":3676:4183   */\n    tag_12:\n        /* \"#utility.yul\":3744:3750   */\n      0x00\n        /* \"#utility.yul\":3793:3795   */\n      0x20\n        /* \"#utility.yul\":3781:3790   */\n      dup3\n        /* \"#utility.yul\":3772:3779   */\n      dup5\n        /* \"#utility.yul\":3768:3791   */\n      sub\n        /* \"#utility.yul\":3764:3796   */\n      slt\n        /* \"#utility.yul\":3761:3880   */\n      iszero\n      tag_137\n      jumpi\n        /* \"#utility.yul\":3799:3878   */\n      tag_138\n      tag_70\n      jump\t// in\n    tag_138:\n        /* \"#utility.yul\":3761:3880   */\n    tag_137:\n        /* \"#utility.yul\":3947:3948   */\n      0x00\n        /* \"#utility.yul\":3936:3945   */\n      dup3\n        /* \"#utility.yul\":3932:3949   */\n      add\n        /* \"#utility.yul\":3919:3950   */\n      calldataload\n        /* \"#utility.yul\":3977:3995   */\n      0xffffffffffffffff\n        /* \"#utility.yul\":3969:3975   */\n      dup2\n        /* \"#utility.yul\":3966:3996   */\n      gt\n        /* \"#utility.yul\":3963:4080   */\n      iszero\n      tag_139\n      jumpi\n        /* \"#utility.yul\":3999:4078   */\n      tag_140\n      tag_71\n      jump\t// in\n    tag_140:\n        /* \"#utility.yul\":3963:4080   */\n    tag_139:\n        /* \"#utility.yul\":4104:4166   */\n      tag_141\n        /* \"#utility.yul\":4158:4165   */\n      dup5\n        /* \"#utility.yul\":4149:4155   */\n      dup3\n        /* \"#utility.yul\":4138:4147   */\n      dup6\n        /* \"#utility.yul\":4134:4156   */\n      add\n        /* \"#utility.yul\":4104:4166   */\n      tag_80\n      jump\t// in\n    tag_141:\n        /* \"#utility.yul\":4094:4166   */\n      swap2\n      pop\n        /* \"#utility.yul\":3890:4176   */\n      pop\n        /* \"#utility.yul\":3676:4183   */\n      swap3\n      swap2\n      pop\n      pop\n      jump\t// out\n        /* \"#utility.yul\":4189:4315   */\n    tag_81:\n        /* \"#utility.yul\":4226:4233   */\n      0x00\n        /* \"#utility.yul\":4266:4308   */\n      0xffffffffffffffffffffffffffffffffffffffff\n        /* \"#utility.yul\":4259:4264   */\n      dup3\n        /* \"#utility.yul\":4255:4309   */\n      and\n        /* \"#utility.yul\":4244:4309   */\n      swap1\n      pop\n        /* \"#utility.yul\":4189:4315   */\n      swap2\n      swap1\n      pop\n      jump\t// out\n        /* \"#utility.yul\":4321:4417   */\n    tag_82:\n        /* \"#utility.yul\":4358:4365   */\n      0x00\n        /* \"#utility.yul\":4387:4411   */\n      tag_144\n        /* \"#utility.yul\":4405:4410   */\n      dup3\n        /* \"#utility.yul\":4387:4411   */\n      tag_81\n      jump\t// in\n    tag_144:\n        /* \"#utility.yul\":4376:4411   */\n      swap1\n      pop\n        /* \"#utility.yul\":4321:4417   */\n      swap2\n      swap1\n      pop\n      jump\t// out\n        /* \"#utility.yul\":4423:4541   */\n    tag_83:\n        /* \"#utility.yul\":4510:4534   */\n      tag_146\n        /* \"#utility.yul\":4528:4533   */\n      dup2\n        /* \"#utility.yul\":4510:4534   */\n      tag_82\n      jump\t// in\n    tag_146:\n        /* \"#utility.yul\":4505:4508   */\n      dup3\n        /* \"#utility.yul\":4498:4535   */\n      mstore\n        /* \"#utility.yul\":4423:4541   */\n      pop\n      pop\n      jump\t// out\n        /* \"#utility.yul\":4547:4769   */\n    tag_17:\n        /* \"#utility.yul\":4640:4644   */\n      0x00\n        /* \"#utility.yul\":4678:4680   */\n      0x20\n        /* \"#utility.yul\":4667:4676   */\n      dup3\n        /* \"#utility.yul\":4663:4681   */\n      add\n        /* \"#utility.yul\":4655:4681   */\n      swap1\n      pop\n        /* \"#utility.yul\":4691:4762   */\n      tag_148\n        /* \"#utility.yul\":4759:4760   */\n      0x00\n        /* \"#utility.yul\":4748:4757   */\n      dup4\n        /* \"#utility.yul\":4744:4761   */\n      add\n        /* \"#utility.yul\":4735:4741   */\n      dup5\n        /* \"#utility.yul\":4691:4762   */\n      tag_83\n      jump\t// in\n    tag_148:\n        /* \"#utility.yul\":4547:4769   */\n      swap3\n      swap2\n      pop\n      pop\n      jump\t// out\n        /* \"#utility.yul\":4775:4852   */\n    tag_84:\n        /* \"#utility.yul\":4812:4819   */\n      0x00\n        /* \"#utility.yul\":4841:4846   */\n      dup2\n        /* \"#utility.yul\":4830:4846   */\n      swap1\n      pop\n        /* \"#utility.yul\":4775:4852   */\n      swap2\n      swap1\n      pop\n      jump\t// out\n        /* \"#utility.yul\":4858:5038   */\n    tag_85:\n        /* \"#utility.yul\":4906:4983   */\n      0x4e487b7100000000000000000000000000000000000000000000000000000000\n        /* \"#utility.yul\":4903:4904   */\n      0x00\n        /* \"#utility.yul\":4896:4984   */\n      mstore\n        /* \"#utility.yul\":5003:5007   */\n      0x11\n        /* \"#utility.yul\":5000:5001   */\n      0x04\n        /* \"#utility.yul\":4993:5008   */\n      mstore\n        /* \"#utility.yul\":5027:5031   */\n      0x24\n        /* \"#utility.yul\":5024:5025   */\n      0x00\n        /* \"#utility.yul\":5017:5032   */\n      revert\n        /* \"#utility.yul\":5044:5238   */\n    tag_25:\n        /* \"#utility.yul\":5084:5088   */\n      0x00\n        /* \"#utility.yul\":5104:5124   */\n      tag_152\n        /* \"#utility.yul\":5122:5123   */\n      dup3\n        /* \"#utility.yul\":5104:5124   */\n      tag_84\n      jump\t// in\n    tag_152:\n        /* \"#utility.yul\":5099:5124   */\n      swap2\n      pop\n        /* \"#utility.yul\":5138:5158   */\n      tag_153\n        /* \"#utility.yul\":5156:5157   */\n      dup4\n        /* \"#utility.yul\":5138:5158   */\n      tag_84\n      jump\t// in\n    tag_153:\n        /* \"#utility.yul\":5133:5158   */\n      swap3\n      pop\n        /* \"#utility.yul\":5182:5183   */\n      dup3\n        /* \"#utility.yul\":5179:5180   */\n      dup3\n        /* \"#utility.yul\":5175:5184   */\n      sub\n        /* \"#utility.yul\":5167:5184   */\n      swap1\n      pop\n        /* \"#utility.yul\":5206:5207   */\n      dup2\n        /* \"#utility.yul\":5200:5204   */\n      dup2\n        /* \"#utility.yul\":5197:5208   */\n      gt\n        /* \"#utility.yul\":5194:5231   */\n      iszero\n      tag_154\n      jumpi\n        /* \"#utility.yul\":5211:5229   */\n      tag_155\n      tag_85\n      jump\t// in\n    tag_155:\n        /* \"#utility.yul\":5194:5231   */\n    tag_154:\n        /* \"#utility.yul\":5044:5238   */\n      swap3\n      swap2\n      pop\n      pop\n      jump\t// out\n        /* \"#utility.yul\":5244:5424   */\n    tag_31:\n        /* \"#utility.yul\":5292:5369   */\n      0x4e487b7100000000000000000000000000000000000000000000000000000000\n        /* \"#utility.yul\":5289:5290   */\n      0x00\n        /* \"#utility.yul\":5282:5370   */\n      mstore\n        /* \"#utility.yul\":5389:5393   */\n      0x32\n        /* \"#utility.yul\":5386:5387   */\n      0x04\n        /* \"#utility.yul\":5379:5394   */\n      mstore\n        /* \"#utility.yul\":5413:5417   */\n      0x24\n        /* \"#utility.yul\":5410:5411   */\n      0x00\n        /* \"#utility.yul\":5403:5418   */\n      revert\n        /* \"#utility.yul\":5430:5621   */\n    tag_33:\n        /* \"#utility.yul\":5470:5473   */\n      0x00\n        /* \"#utility.yul\":5489:5509   */\n      tag_158\n        /* \"#utility.yul\":5507:5508   */\n      dup3\n        /* \"#utility.yul\":5489:5509   */\n      tag_84\n      jump\t// in\n    tag_158:\n        /* \"#utility.yul\":5484:5509   */\n      swap2\n      pop\n        /* \"#utility.yul\":5523:5543   */\n      tag_159\n        /* \"#utility.yul\":5541:5542   */\n      dup4\n        /* \"#utility.yul\":5523:5543   */\n      tag_84\n      jump\t// in\n    tag_159:\n        /* \"#utility.yul\":5518:5543   */\n      swap3\n      pop\n        /* \"#utility.yul\":5566:5567   */\n      dup3\n        /* \"#utility.yul\":5563:5564   */\n      dup3\n        /* \"#utility.yul\":5559:5568   */\n      add\n        /* \"#utility.yul\":5552:5568   */\n      swap1\n      pop\n        /* \"#utility.yul\":5587:5590   */\n      dup1\n        /* \"#utility.yul\":5584:5585   */\n      dup3\n        /* \"#utility.yul\":5581:5591   */\n      gt\n        /* \"#utility.yul\":5578:5614   */\n      iszero\n      tag_160\n      jumpi\n        /* \"#utility.yul\":5594:5612   */\n      tag_161\n      tag_85\n      jump\t// in\n    tag_161:\n        /* \"#utility.yul\":5578:5614   */\n    tag_160:\n        /* \"#utility.yul\":5430:5621   */\n      swap3\n      swap2\n      pop\n      pop\n      jump\t// out\n        /* \"#utility.yul\":5627:5860   */\n    tag_47:\n        /* \"#utility.yul\":5666:5669   */\n      0x00\n        /* \"#utility.yul\":5689:5713   */\n      tag_163\n        /* \"#utility.yul\":5707:5712   */\n      dup3\n        /* \"#utility.yul\":5689:5713   */\n      tag_84\n      jump\t// in\n    tag_163:\n        /* \"#utility.yul\":5680:5713   */\n      swap2\n      pop\n        /* \"#utility.yul\":5735:5801   */\n      0xffffffffffffffffffffffffffffffffffffffffffffffffffffffffffffffff\n        /* \"#utility.yul\":5728:5733   */\n      dup3\n        /* \"#utility.yul\":5725:5802   */\n      sub\n        /* \"#utility.yul\":5722:5825   */\n      tag_164\n      jumpi\n        /* \"#utility.yul\":5805:5823   */\n      tag_165\n      tag_85\n      jump\t// in\n    tag_165:\n        /* \"#utility.yul\":5722:5825   */\n    tag_164:\n        /* \"#utility.yul\":5852:5853   */\n      0x01\n        /* \"#utility.yul\":5845:5850   */\n      dup3\n        /* \"#utility.yul\":5841:5854   */\n      add\n        /* \"#utility.yul\":5834:5854   */\n      swap1\n      pop\n        /* \"#utility.yul\":5627:5860   */\n      swap2\n      swap1\n      pop\n      jump\t// out\n        /* \"#utility.yul\":5866:6014   */\n    tag_86:\n        /* \"#utility.yul\":5968:5979   */\n      0x00\n        /* \"#utility.yul\":6005:6008   */\n      dup2\n        /* \"#utility.yul\":5990:6008   */\n      swap1\n      pop\n        /* \"#utility.yul\":5866:6014   */\n      swap3\n      swap2\n      pop\n      pop\n      jump\t// out\n        /* \"#utility.yul\":6020:6234   */\n    tag_87:\n        /* \"#utility.yul\":6160:6226   */\n      0x00\n        /* \"#utility.yul\":6156:6157   */\n      dup1\n        /* \"#utility.yul\":6148:6154   */\n      dup3\n        /* \"#utility.yul\":6144:6158   */\n      add\n        /* \"#utility.yul\":6137:6227   */\n      mstore\n        /* \"#utility.yul\":6020:6234   */\n      pop\n      jump\t// out\n        /* \"#utility.yul\":6240:6640   */\n    tag_88:\n        /* \"#utility.yul\":6400:6403   */\n      0x00\n        /* \"#utility.yul\":6421:6505   */\n      tag_169\n        /* \"#utility.yul\":6503:6504   */\n      0x01\n        /* \"#utility.yul\":6498:6501   */\n      dup4\n        /* \"#utility.yul\":6421:6505   */\n      tag_86\n      jump\t// in\n    tag_169:\n        /* \"#utility.yul\":6414:6505   */\n      swap2\n      pop\n        /* \"#utility.yul\":6514:6607   */\n      tag_170\n        /* \"#utility.yul\":6603:6606   */\n      dup3\n        /* \"#utility.yul\":6514:6607   */\n      tag_87\n      jump\t// in\n    tag_170:\n        /* \"#utility.yul\":6632:6633   */\n      0x01\n        /* \"#utility.yul\":6627:6630   */\n      dup3\n        /* \"#utility.yul\":6623:6634   */\n      add\n        /* \"#utility.yul\":6616:6634   */\n      swap1\n      pop\n        /* \"#utility.yul\":6240:6640   */\n      swap2\n      swap1\n      pop\n      jump\t// out\n        /* \"#utility.yul\":6646:6744   */\n    tag_89:\n        /* \"#utility.yul\":6697:6703   */\n      0x00\n        /* \"#utility.yul\":6731:6736   */\n      dup2\n        /* \"#utility.yul\":6725:6737   */\n      mload\n        /* \"#utility.yul\":6715:6737   */\n      swap1\n      pop\n        /* \"#utility.yul\":6646:6744   */\n      swap2\n      swap1\n      pop\n      jump\t// out\n        /* \"#utility.yul\":6750:6897   */\n    tag_90:\n        /* \"#utility.yul\":6851:6862   */\n      0x00\n        /* \"#utility.yul\":6888:6891   */\n      dup2\n        /* \"#utility.yul\":6873:6891   */\n      swap1\n      pop\n        /* \"#utility.yul\":6750:6897   */\n      swap3\n      swap2\n      pop\n      pop\n      jump\t// out\n        /* \"#utility.yul\":6903:7289   */\n    tag_91:\n        /* \"#utility.yul\":7007:7010   */\n      0x00\n        /* \"#utility.yul\":7035:7073   */\n      tag_174\n        /* \"#utility.yul\":7067:7072   */\n      dup3\n        /* \"#utility.yul\":7035:7073   */\n      tag_89\n      jump\t// in\n    tag_174:\n        /* \"#utility.yul\":7089:7177   */\n      tag_175\n        /* \"#utility.yul\":7170:7176   */\n      dup2\n        /* \"#utility.yul\":7165:7168   */\n      dup6\n        /* \"#utility.yul\":7089:7177   */\n      tag_90\n      jump\t// in\n    tag_175:\n        /* \"#utility.yul\":7082:7177   */\n      swap4\n      pop\n        /* \"#utility.yul\":7186:7251   */\n      tag_176\n        /* \"#utility.yul\":7244:7250   */\n      dup2\n        /* \"#utility.yul\":7239:7242   */\n      dup6\n        /* \"#utility.yul\":7232:7236   */\n      0x20\n        /* \"#utility.yul\":7225:7230   */\n      dup7\n        /* \"#utility.yul\":7221:7237   */\n      add\n        /* \"#utility.yul\":7186:7251   */\n      tag_66\n      jump\t// in\n    tag_176:\n        /* \"#utility.yul\":7276:7282   */\n      dup1\n        /* \"#utility.yul\":7271:7274   */\n      dup5\n        /* \"#utility.yul\":7267:7283   */\n      add\n        /* \"#utility.yul\":7260:7283   */\n      swap2\n      pop\n        /* \"#utility.yul\":7011:7289   */\n      pop\n        /* \"#utility.yul\":6903:7289   */\n      swap3\n      swap2\n      pop\n      pop\n      jump\t// out\n        /* \"#utility.yul\":7295:7832   */\n    tag_57:\n        /* \"#utility.yul\":7526:7529   */\n      0x00\n        /* \"#utility.yul\":7548:7696   */\n      tag_178\n        /* \"#utility.yul\":7692:7695   */\n      dup3\n        /* \"#utility.yul\":7548:7696   */\n      tag_88\n      jump\t// in\n    tag_178:\n        /* \"#utility.yul\":7541:7696   */\n      swap2\n      pop\n        /* \"#utility.yul\":7713:7806   */\n      tag_179\n        /* \"#utility.yul\":7802:7805   */\n      dup3\n        /* \"#utility.yul\":7793:7799   */\n      dup5\n        /* \"#utility.yul\":7713:7806   */\n      tag_91\n      jump\t// in\n    tag_179:\n        /* \"#utility.yul\":7706:7806   */\n      swap2\n      pop\n        /* \"#utility.yul\":7823:7826   */\n      dup2\n        /* \"#utility.yul\":7816:7826   */\n      swap1\n      pop\n        /* \"#utility.yul\":7295:7832   */\n      swap3\n      swap2\n      pop\n      pop\n      jump\t// out\n        /* \"#utility.yul\":7838:8052   */\n    tag_92:\n        /* \"#utility.yul\":7978:8044   */\n      0x600b5981380380925939f3000000000000000000000000000000000000000000\n        /* \"#utility.yul\":7974:7975   */\n      0x00\n        /* \"#utility.yul\":7966:7972   */\n      dup3\n        /* \"#utility.yul\":7962:7976   */\n      add\n        /* \"#utility.yul\":7955:8045   */\n      mstore\n        /* \"#utility.yul\":7838:8052   */\n      pop\n      jump\t// out\n        /* \"#utility.yul\":8058:8460   */\n    tag_93:\n        /* \"#utility.yul\":8218:8221   */\n      0x00\n        /* \"#utility.yul\":8239:8324   */\n      tag_182\n        /* \"#utility.yul\":8321:8323   */\n      0x0b\n        /* \"#utility.yul\":8316:8319   */\n      dup4\n        /* \"#utility.yul\":8239:8324   */\n      tag_86\n      jump\t// in\n    tag_182:\n        /* \"#utility.yul\":8232:8324   */\n      swap2\n      pop\n        /* \"#utility.yul\":8333:8426   */\n      tag_183\n        /* \"#utility.yul\":8422:8425   */\n      dup3\n        /* \"#utility.yul\":8333:8426   */\n      tag_92\n      jump\t// in\n    tag_183:\n        /* \"#utility.yul\":8451:8453   */\n      0x0b\n        /* \"#utility.yul\":8446:8449   */\n      dup3\n        /* \"#utility.yul\":8442:8454   */\n      add\n        /* \"#utility.yul\":8435:8454   */\n      swap1\n      pop\n        /* \"#utility.yul\":8058:8460   */\n      swap2\n      swap1\n      pop\n      jump\t// out\n        /* \"#utility.yul\":8466:9003   */\n    tag_59:\n        /* \"#utility.yul\":8697:8700   */\n      0x00\n        /* \"#utility.yul\":8719:8867   */\n      tag_185\n        /* \"#utility.yul\":8863:8866   */\n      dup3\n        /* \"#utility.yul\":8719:8867   */\n      tag_93\n      jump\t// in\n    tag_185:\n        /* \"#utility.yul\":8712:8867   */\n      swap2\n      pop\n        /* \"#utility.yul\":8884:8977   */\n      tag_186\n        /* \"#utility.yul\":8973:8976   */\n      dup3\n        /* \"#utility.yul\":8964:8970   */\n      dup5\n        /* \"#utility.yul\":8884:8977   */\n      tag_91\n      jump\t// in\n    tag_186:\n        /* \"#utility.yul\":8877:8977   */\n      swap2\n      pop\n        /* \"#utility.yul\":8994:8997   */\n      dup2\n        /* \"#utility.yul\":8987:8997   */\n      swap1\n      pop\n        /* \"#utility.yul\":8466:9003   */\n      swap3\n      swap2\n      pop\n      pop\n      jump\t// out\n        /* \"#utility.yul\":9009:9176   */\n    tag_94:\n        /* \"#utility.yul\":9149:9168   */\n      0x4445504c4f594d454e545f4641494c4544000000000000000000000000000000\n        /* \"#utility.yul\":9145:9146   */\n      0x00\n        /* \"#utility.yul\":9137:9143   */\n      dup3\n        /* \"#utility.yul\":9133:9147   */\n      add\n        /* \"#utility.yul\":9126:9169   */\n      mstore\n        /* \"#utility.yul\":9009:9176   */\n      pop\n      jump\t// out\n        /* \"#utility.yul\":9182:9548   */\n    tag_95:\n        /* \"#utility.yul\":9324:9327   */\n      0x00\n        /* \"#utility.yul\":9345:9412   */\n      tag_189\n        /* \"#utility.yul\":9409:9411   */\n      0x11\n        /* \"#utility.yul\":9404:9407   */\n      dup4\n        /* \"#utility.yul\":9345:9412   */\n      tag_65\n      jump\t// in\n    tag_189:\n        /* \"#utility.yul\":9338:9412   */\n      swap2\n      pop\n        /* \"#utility.yul\":9421:9514   */\n      tag_190\n        /* \"#utility.yul\":9510:9513   */\n      dup3\n        /* \"#utility.yul\":9421:9514   */\n      tag_94\n      jump\t// in\n    tag_190:\n        /* \"#utility.yul\":9539:9541   */\n      0x20\n        /* \"#utility.yul\":9534:9537   */\n      dup3\n        /* \"#utility.yul\":9530:9542   */\n      add\n        /* \"#utility.yul\":9523:9542   */\n      swap1\n      pop\n        /* \"#utility.yul\":9182:9548   */\n      swap2\n      swap1\n      pop\n      jump\t// out\n        /* \"#utility.yul\":9554:9973   */\n    tag_62:\n        /* \"#utility.yul\":9720:9724   */\n      0x00\n        /* \"#utility.yul\":9758:9760   */\n      0x20\n        /* \"#utility.yul\":9747:9756   */\n      dup3\n        /* \"#utility.yul\":9743:9761   */\n      add\n        /* \"#utility.yul\":9735:9761   */\n      swap1\n      pop\n        /* \"#utility.yul\":9807:9816   */\n      dup2\n        /* \"#utility.yul\":9801:9805   */\n      dup2\n        /* \"#utility.yul\":9797:9817   */\n      sub\n        /* \"#utility.yul\":9793:9794   */\n      0x00\n        /* \"#utility.yul\":9782:9791   */\n      dup4\n        /* \"#utility.yul\":9778:9795   */\n      add\n        /* \"#utility.yul\":9771:9818   */\n      mstore\n        /* \"#utility.yul\":9835:9966   */\n      tag_192\n        /* \"#utility.yul\":9961:9965   */\n      dup2\n        /* \"#utility.yul\":9835:9966   */\n      tag_95\n      jump\t// in\n    tag_192:\n        /* \"#utility.yul\":9827:9966   */\n      swap1\n      pop\n        /* \"#utility.yul\":9554:9973   */\n      swap2\n      swap1\n      pop\n      jump\t// out\n\n    auxdata: 0xa2646970667358221220839cb914764c37b0a6f0647191223935ca271802327acafc313a4b2b18fd8ab864736f6c634300081a0033\n}\n",
				"bytecode": {
					"linkReferences": {},
					"object": "6080604052348015600e575f80fd5b506109648061001c5f395ff3fe608060405234801561000f575f80fd5b506004361061003f575f3560e01c80634dcd342d14610043578063d185973514610061578063ff35b8681461007d575b5f80fd5b61004b61009b565b60405161005891906104b6565b60405180910390f35b61007b60048036038101906100769190610613565b6102b3565b005b6100856102fd565b6040516100929190610699565b60405180910390f35b60605f6100c65f8054906101000a900473ffffffffffffffffffffffffffffffffffffffff16610320565b90505f6040518060400160405280600c81526020017f66696c6c3d27626c61636b27000000000000000000000000000000000000000081525090505f6040518060400160405280600c81526020017f66696c6c3d27776869746527000000000000000000000000000000000000000081525090505f5b8251845161014a91906106e8565b81116102a9575f600190505f5b8451811015610205578481815181106101735761017261071b565b5b602001015160f81c60f81b7effffffffffffffffffffffffffffffffffffffffffffffffffffffffffffff19168682856101ad9190610748565b815181106101be576101bd61071b565b5b602001015160f81c60f81b7effffffffffffffffffffffffffffffffffffffffffffffffffffffffffffff1916146101f8575f9150610205565b8080600101915050610157565b508015610295575f5b845181101561028e5783818151811061022a5761022961071b565b5b602001015160f81c60f81b8682856102429190610748565b815181106102535761025261071b565b5b60200101907effffffffffffffffffffffffffffffffffffffffffffffffffffffffffffff191690815f1a905350808060010191505061020e565b50506102a9565b5080806102a19061077b565b91505061013c565b5082935050505090565b6102bc81610357565b5f806101000a81548173ffffffffffffffffffffffffffffffffffffffff021916908373ffffffffffffffffffffffffffffffffffffffff16021790555050565b5f8054906101000a900473ffffffffffffffffffffffffffffffffffffffff1681565b6060610350826001808573ffffffffffffffffffffffffffffffffffffffff163b61034b91906106e8565b61041d565b9050919050565b5f808260405160200161036a919061083a565b60405160208183030381529060405290505f8160405160200161038d91906108a5565b60405160208183030381529060405290508051602082015ff092505f73ffffffffffffffffffffffffffffffffffffffff168373ffffffffffffffffffffffffffffffffffffffff1603610416576040517f08c379a000000000000000000000000000000000000000000000000000000000815260040161040d90610910565b60405180910390fd5b5050919050565b60606040519050601f19601f6020840101168101604052818152818360208301863c9392505050565b5f81519050919050565b5f82825260208201905092915050565b8281835e5f83830152505050565b5f601f19601f8301169050919050565b5f61048882610446565b6104928185610450565b93506104a2818560208601610460565b6104ab8161046e565b840191505092915050565b5f6020820190508181035f8301526104ce818461047e565b905092915050565b5f604051905090565b5f80fd5b5f80fd5b5f80fd5b5f80fd5b7f4e487b71000000000000000000000000000000000000000000000000000000005f52604160045260245ffd5b6105258261046e565b810181811067ffffffffffffffff82111715610544576105436104ef565b5b80604052505050565b5f6105566104d6565b9050610562828261051c565b919050565b5f67ffffffffffffffff821115610581576105806104ef565b5b61058a8261046e565b9050602081019050919050565b828183375f83830152505050565b5f6105b76105b284610567565b61054d565b9050828152602081018484840111156105d3576105d26104eb565b5b6105de848285610597565b509392505050565b5f82601f8301126105fa576105f96104e7565b5b813561060a8482602086016105a5565b91505092915050565b5f60208284031215610628576106276104df565b5b5f82013567ffffffffffffffff811115610645576106446104e3565b5b610651848285016105e6565b91505092915050565b5f73ffffffffffffffffffffffffffffffffffffffff82169050919050565b5f6106838261065a565b9050919050565b61069381610679565b82525050565b5f6020820190506106ac5f83018461068a565b92915050565b5f819050919050565b7f4e487b71000000000000000000000000000000000000000000000000000000005f52601160045260245ffd5b5f6106f2826106b2565b91506106fd836106b2565b9250828203905081811115610715576107146106bb565b5b92915050565b7f4e487b71000000000000000000000000000000000000000000000000000000005f52603260045260245ffd5b5f610752826106b2565b915061075d836106b2565b9250828201905080821115610775576107746106bb565b5b92915050565b5f610785826106b2565b91507fffffffffffffffffffffffffffffffffffffffffffffffffffffffffffffffff82036107b7576107b66106bb565b5b600182019050919050565b5f81905092915050565b5f8082015250565b5f6107e06001836107c2565b91506107eb826107cc565b600182019050919050565b5f81519050919050565b5f81905092915050565b5f610814826107f6565b61081e8185610800565b935061082e818560208601610460565b80840191505092915050565b5f610844826107d4565b9150610850828461080a565b915081905092915050565b7f600b5981380380925939f30000000000000000000000000000000000000000005f82015250565b5f61088f600b836107c2565b915061089a8261085b565b600b82019050919050565b5f6108af82610883565b91506108bb828461080a565b915081905092915050565b7f4445504c4f594d454e545f4641494c45440000000000000000000000000000005f82015250565b5f6108fa601183610450565b9150610905826108c6565b602082019050919050565b5f6020820190508181035f830152610927816108ee565b905091905056fea2646970667358221220839cb914764c37b0a6f0647191223935ca271802327acafc313a4b2b18fd8ab864736f6c634300081a0033",
					"opcodes": "PUSH1 0x80 PUSH1 0x40 MSTORE CALLVALUE DUP1 ISZERO PUSH1 0xE JUMPI PUSH0 DUP1 REVERT JUMPDEST POP PUSH2 0x964 DUP1 PUSH2 0x1C PUSH0 CODECOPY PUSH0 RETURN INVALID PUSH1 0x80 PUSH1 0x40 MSTORE CALLVALUE DUP1 ISZERO PUSH2 0xF JUMPI PUSH0 DUP1 REVERT JUMPDEST POP PUSH1 0x4 CALLDATASIZE LT PUSH2 0x3F JUMPI PUSH0 CALLDATALOAD PUSH1 0xE0 SHR DUP1 PUSH4 0x4DCD342D EQ PUSH2 0x43 JUMPI DUP1 PUSH4 0xD1859735 EQ PUSH2 0x61 JUMPI DUP1 PUSH4 0xFF35B868 EQ PUSH2 0x7D JUMPI JUMPDEST PUSH0 DUP1 REVERT JUMPDEST PUSH2 0x4B PUSH2 0x9B JUMP JUMPDEST PUSH1 0x40 MLOAD PUSH2 0x58 SWAP2 SWAP1 PUSH2 0x4B6 JUMP JUMPDEST PUSH1 0x40 MLOAD DUP1 SWAP2 SUB SWAP1 RETURN JUMPDEST PUSH2 0x7B PUSH1 0x4 DUP1 CALLDATASIZE SUB DUP2 ADD SWAP1 PUSH2 0x76 SWAP2 SWAP1 PUSH2 0x613 JUMP JUMPDEST PUSH2 0x2B3 JUMP JUMPDEST STOP JUMPDEST PUSH2 0x85 PUSH2 0x2FD JUMP JUMPDEST PUSH1 0x40 MLOAD PUSH2 0x92 SWAP2 SWAP1 PUSH2 0x699 JUMP JUMPDEST PUSH1 0x40 MLOAD DUP1 SWAP2 SUB SWAP1 RETURN JUMPDEST PUSH1 0x60 PUSH0 PUSH2 0xC6 PUSH0 DUP1 SLOAD SWAP1 PUSH2 0x100 EXP SWAP1 DIV PUSH20 0xFFFFFFFFFFFFFFFFFFFFFFFFFFFFFFFFFFFFFFFF AND PUSH2 0x320 JUMP JUMPDEST SWAP1 POP PUSH0 PUSH1 0x40 MLOAD DUP1 PUSH1 0x40 ADD PUSH1 0x40 MSTORE DUP1 PUSH1 0xC DUP2 MSTORE PUSH1 0x20 ADD PUSH32 0x66696C6C3D27626C61636B270000000000000000000000000000000000000000 DUP2 MSTORE POP SWAP1 POP PUSH0 PUSH1 0x40 MLOAD DUP1 PUSH1 0x40 ADD PUSH1 0x40 MSTORE DUP1 PUSH1 0xC DUP2 MSTORE PUSH1 0x20 ADD PUSH32 0x66696C6C3D277768697465270000000000000000000000000000000000000000 DUP2 MSTORE POP SWAP1 POP PUSH0 JUMPDEST DUP3 MLOAD DUP5 MLOAD PUSH2 0x14A SWAP2 SWAP1 PUSH2 0x6E8 JUMP JUMPDEST DUP2 GT PUSH2 0x2A9 JUMPI PUSH0 PUSH1 0x1 SWAP1 POP PUSH0 JUMPDEST DUP5 MLOAD DUP2 LT ISZERO PUSH2 0x205 JUMPI DUP5 DUP2 DUP2 MLOAD DUP2 LT PUSH2 0x173 JUMPI PUSH2 0x172 PUSH2 0x71B JUMP JUMPDEST JUMPDEST PUSH1 0x20 ADD ADD MLOAD PUSH1 0xF8 SHR PUSH1 0xF8 SHL PUSH31 0xFFFFFFFFFFFFFFFFFFFFFFFFFFFFFFFFFFFFFFFFFFFFFFFFFFFFFFFFFFFFFF NOT AND DUP7 DUP3 DUP6 PUSH2 0x1AD SWAP2 SWAP1 PUSH2 0x748 JUMP JUMPDEST DUP2 MLOAD DUP2 LT PUSH2 0x1BE JUMPI PUSH2 0x1BD PUSH2 0x71B JUMP JUMPDEST JUMPDEST PUSH1 0x20 ADD ADD MLOAD PUSH1 0xF8 SHR PUSH1 0xF8 SHL PUSH31 0xFFFFFFFFFFFFFFFFFFFFFFFFFFFFFFFFFFFFFFFFFFFFFFFFFFFFFFFFFFFFFF NOT AND EQ PUSH2 0x1F8 JUMPI PUSH0 SWAP2 POP PUSH2 0x205 JUMP JUMPDEST DUP1 DUP1 PUSH1 0x1 ADD SWAP2 POP POP PUSH2 0x157 JUMP JUMPDEST POP DUP1 ISZERO PUSH2 0x295 JUMPI PUSH0 JUMPDEST DUP5 MLOAD DUP2 LT ISZERO PUSH2 0x28E JUMPI DUP4 DUP2 DUP2 MLOAD DUP2 LT PUSH2 0x22A JUMPI PUSH2 0x229 PUSH2 0x71B JUMP JUMPDEST JUMPDEST PUSH1 0x20 ADD ADD MLOAD PUSH1 0xF8 SHR PUSH1 0xF8 SHL DUP7 DUP3 DUP6 PUSH2 0x242 SWAP2 SWAP1 PUSH2 0x748 JUMP JUMPDEST DUP2 MLOAD DUP2 LT PUSH2 0x253 JUMPI PUSH2 0x252 PUSH2 0x71B JUMP JUMPDEST JUMPDEST PUSH1 0x20 ADD ADD SWAP1 PUSH31 0xFFFFFFFFFFFFFFFFFFFFFFFFFFFFFFFFFFFFFFFFFFFFFFFFFFFFFFFFFFFFFF NOT AND SWAP1 DUP2 PUSH0 BYTE SWAP1 MSTORE8 POP DUP1 DUP1 PUSH1 0x1 ADD SWAP2 POP POP PUSH2 0x20E JUMP JUMPDEST POP POP PUSH2 0x2A9 JUMP JUMPDEST POP DUP1 DUP1 PUSH2 0x2A1 SWAP1 PUSH2 0x77B JUMP JUMPDEST SWAP2 POP POP PUSH2 0x13C JUMP JUMPDEST POP DUP3 SWAP4 POP POP POP POP SWAP1 JUMP JUMPDEST PUSH2 0x2BC DUP2 PUSH2 0x357 JUMP JUMPDEST PUSH0 DUP1 PUSH2 0x100 EXP DUP2 SLOAD DUP2 PUSH20 0xFFFFFFFFFFFFFFFFFFFFFFFFFFFFFFFFFFFFFFFF MUL NOT AND SWAP1 DUP4 PUSH20 0xFFFFFFFFFFFFFFFFFFFFFFFFFFFFFFFFFFFFFFFF AND MUL OR SWAP1 SSTORE POP POP JUMP JUMPDEST PUSH0 DUP1 SLOAD SWAP1 PUSH2 0x100 EXP SWAP1 DIV PUSH20 0xFFFFFFFFFFFFFFFFFFFFFFFFFFFFFFFFFFFFFFFF AND DUP2 JUMP JUMPDEST PUSH1 0x60 PUSH2 0x350 DUP3 PUSH1 0x1 DUP1 DUP6 PUSH20 0xFFFFFFFFFFFFFFFFFFFFFFFFFFFFFFFFFFFFFFFF AND EXTCODESIZE PUSH2 0x34B SWAP2 SWAP1 PUSH2 0x6E8 JUMP JUMPDEST PUSH2 0x41D JUMP JUMPDEST SWAP1 POP SWAP2 SWAP1 POP JUMP JUMPDEST PUSH0 DUP1 DUP3 PUSH1 0x40 MLOAD PUSH1 0x20 ADD PUSH2 0x36A SWAP2 SWAP1 PUSH2 0x83A JUMP JUMPDEST PUSH1 0x40 MLOAD PUSH1 0x20 DUP2 DUP4 SUB SUB DUP2 MSTORE SWAP1 PUSH1 0x40 MSTORE SWAP1 POP PUSH0 DUP2 PUSH1 0x40 MLOAD PUSH1 0x20 ADD PUSH2 0x38D SWAP2 SWAP1 PUSH2 0x8A5 JUMP JUMPDEST PUSH1 0x40 MLOAD PUSH1 0x20 DUP2 DUP4 SUB SUB DUP2 MSTORE SWAP1 PUSH1 0x40 MSTORE SWAP1 POP DUP1 MLOAD PUSH1 0x20 DUP3 ADD PUSH0 CREATE SWAP3 POP PUSH0 PUSH20 0xFFFFFFFFFFFFFFFFFFFFFFFFFFFFFFFFFFFFFFFF AND DUP4 PUSH20 0xFFFFFFFFFFFFFFFFFFFFFFFFFFFFFFFFFFFFFFFF AND SUB PUSH2 0x416 JUMPI PUSH1 0x40 MLOAD PUSH32 0x8C379A000000000000000000000000000000000000000000000000000000000 DUP2 MSTORE PUSH1 0x4 ADD PUSH2 0x40D SWAP1 PUSH2 0x910 JUMP JUMPDEST PUSH1 0x40 MLOAD DUP1 SWAP2 SUB SWAP1 REVERT JUMPDEST POP POP SWAP2 SWAP1 POP JUMP JUMPDEST PUSH1 0x60 PUSH1 0x40 MLOAD SWAP1 POP PUSH1 0x1F NOT PUSH1 0x1F PUSH1 0x20 DUP5 ADD ADD AND DUP2 ADD PUSH1 0x40 MSTORE DUP2 DUP2 MSTORE DUP2 DUP4 PUSH1 0x20 DUP4 ADD DUP7 EXTCODECOPY SWAP4 SWAP3 POP POP POP JUMP JUMPDEST PUSH0 DUP2 MLOAD SWAP1 POP SWAP2 SWAP1 POP JUMP JUMPDEST PUSH0 DUP3 DUP3 MSTORE PUSH1 0x20 DUP3 ADD SWAP1 POP SWAP3 SWAP2 POP POP JUMP JUMPDEST DUP3 DUP2 DUP4 MCOPY PUSH0 DUP4 DUP4 ADD MSTORE POP POP POP JUMP JUMPDEST PUSH0 PUSH1 0x1F NOT PUSH1 0x1F DUP4 ADD AND SWAP1 POP SWAP2 SWAP1 POP JUMP JUMPDEST PUSH0 PUSH2 0x488 DUP3 PUSH2 0x446 JUMP JUMPDEST PUSH2 0x492 DUP2 DUP6 PUSH2 0x450 JUMP JUMPDEST SWAP4 POP PUSH2 0x4A2 DUP2 DUP6 PUSH1 0x20 DUP7 ADD PUSH2 0x460 JUMP JUMPDEST PUSH2 0x4AB DUP2 PUSH2 0x46E JUMP JUMPDEST DUP5 ADD SWAP2 POP POP SWAP3 SWAP2 POP POP JUMP JUMPDEST PUSH0 PUSH1 0x20 DUP3 ADD SWAP1 POP DUP2 DUP2 SUB PUSH0 DUP4 ADD MSTORE PUSH2 0x4CE DUP2 DUP5 PUSH2 0x47E JUMP JUMPDEST SWAP1 POP SWAP3 SWAP2 POP POP JUMP JUMPDEST PUSH0 PUSH1 0x40 MLOAD SWAP1 POP SWAP1 JUMP JUMPDEST PUSH0 DUP1 REVERT JUMPDEST PUSH0 DUP1 REVERT JUMPDEST PUSH0 DUP1 REVERT JUMPDEST PUSH0 DUP1 REVERT JUMPDEST PUSH32 0x4E487B7100000000000000000000000000000000000000000000000000000000 PUSH0 MSTORE PUSH1 0x41 PUSH1 0x4 MSTORE PUSH1 0x24 PUSH0 REVERT JUMPDEST PUSH2 0x525 DUP3 PUSH2 0x46E JUMP JUMPDEST DUP2 ADD DUP2 DUP2 LT PUSH8 0xFFFFFFFFFFFFFFFF DUP3 GT OR ISZERO PUSH2 0x544 JUMPI PUSH2 0x543 PUSH2 0x4EF JUMP JUMPDEST JUMPDEST DUP1 PUSH1 0x40 MSTORE POP POP POP JUMP JUMPDEST PUSH0 PUSH2 0x556 PUSH2 0x4D6 JUMP JUMPDEST SWAP1 POP PUSH2 0x562 DUP3 DUP3 PUSH2 0x51C JUMP JUMPDEST SWAP2 SWAP1 POP JUMP JUMPDEST PUSH0 PUSH8 0xFFFFFFFFFFFFFFFF DUP3 GT ISZERO PUSH2 0x581 JUMPI PUSH2 0x580 PUSH2 0x4EF JUMP JUMPDEST JUMPDEST PUSH2 0x58A DUP3 PUSH2 0x46E JUMP JUMPDEST SWAP1 POP PUSH1 0x20 DUP2 ADD SWAP1 POP SWAP2 SWAP1 POP JUMP JUMPDEST DUP3 DUP2 DUP4 CALLDATACOPY PUSH0 DUP4 DUP4 ADD MSTORE POP POP POP JUMP JUMPDEST PUSH0 PUSH2 0x5B7 PUSH2 0x5B2 DUP5 PUSH2 0x567 JUMP JUMPDEST PUSH2 0x54D JUMP JUMPDEST SWAP1 POP DUP3 DUP2 MSTORE PUSH1 0x20 DUP2 ADD DUP5 DUP5 DUP5 ADD GT ISZERO PUSH2 0x5D3 JUMPI PUSH2 0x5D2 PUSH2 0x4EB JUMP JUMPDEST JUMPDEST PUSH2 0x5DE DUP5 DUP3 DUP6 PUSH2 0x597 JUMP JUMPDEST POP SWAP4 SWAP3 POP POP POP JUMP JUMPDEST PUSH0 DUP3 PUSH1 0x1F DUP4 ADD SLT PUSH2 0x5FA JUMPI PUSH2 0x5F9 PUSH2 0x4E7 JUMP JUMPDEST JUMPDEST DUP2 CALLDATALOAD PUSH2 0x60A DUP5 DUP3 PUSH1 0x20 DUP7 ADD PUSH2 0x5A5 JUMP JUMPDEST SWAP2 POP POP SWAP3 SWAP2 POP POP JUMP JUMPDEST PUSH0 PUSH1 0x20 DUP3 DUP5 SUB SLT ISZERO PUSH2 0x628 JUMPI PUSH2 0x627 PUSH2 0x4DF JUMP JUMPDEST JUMPDEST PUSH0 DUP3 ADD CALLDATALOAD PUSH8 0xFFFFFFFFFFFFFFFF DUP2 GT ISZERO PUSH2 0x645 JUMPI PUSH2 0x644 PUSH2 0x4E3 JUMP JUMPDEST JUMPDEST PUSH2 0x651 DUP5 DUP3 DUP6 ADD PUSH2 0x5E6 JUMP JUMPDEST SWAP2 POP POP SWAP3 SWAP2 POP POP JUMP JUMPDEST PUSH0 PUSH20 0xFFFFFFFFFFFFFFFFFFFFFFFFFFFFFFFFFFFFFFFF DUP3 AND SWAP1 POP SWAP2 SWAP1 POP JUMP JUMPDEST PUSH0 PUSH2 0x683 DUP3 PUSH2 0x65A JUMP JUMPDEST SWAP1 POP SWAP2 SWAP1 POP JUMP JUMPDEST PUSH2 0x693 DUP2 PUSH2 0x679 JUMP JUMPDEST DUP3 MSTORE POP POP JUMP JUMPDEST PUSH0 PUSH1 0x20 DUP3 ADD SWAP1 POP PUSH2 0x6AC PUSH0 DUP4 ADD DUP5 PUSH2 0x68A JUMP JUMPDEST SWAP3 SWAP2 POP POP JUMP JUMPDEST PUSH0 DUP2 SWAP1 POP SWAP2 SWAP1 POP JUMP JUMPDEST PUSH32 0x4E487B7100000000000000000000000000000000000000000000000000000000 PUSH0 MSTORE PUSH1 0x11 PUSH1 0x4 MSTORE PUSH1 0x24 PUSH0 REVERT JUMPDEST PUSH0 PUSH2 0x6F2 DUP3 PUSH2 0x6B2 JUMP JUMPDEST SWAP2 POP PUSH2 0x6FD DUP4 PUSH2 0x6B2 JUMP JUMPDEST SWAP3 POP DUP3 DUP3 SUB SWAP1 POP DUP2 DUP2 GT ISZERO PUSH2 0x715 JUMPI PUSH2 0x714 PUSH2 0x6BB JUMP JUMPDEST JUMPDEST SWAP3 SWAP2 POP POP JUMP JUMPDEST PUSH32 0x4E487B7100000000000000000000000000000000000000000000000000000000 PUSH0 MSTORE PUSH1 0x32 PUSH1 0x4 MSTORE PUSH1 0x24 PUSH0 REVERT JUMPDEST PUSH0 PUSH2 0x752 DUP3 PUSH2 0x6B2 JUMP JUMPDEST SWAP2 POP PUSH2 0x75D DUP4 PUSH2 0x6B2 JUMP JUMPDEST SWAP3 POP DUP3 DUP3 ADD SWAP1 POP DUP1 DUP3 GT ISZERO PUSH2 0x775 JUMPI PUSH2 0x774 PUSH2 0x6BB JUMP JUMPDEST JUMPDEST SWAP3 SWAP2 POP POP JUMP JUMPDEST PUSH0 PUSH2 0x785 DUP3 PUSH2 0x6B2 JUMP JUMPDEST SWAP2 POP PUSH32 0xFFFFFFFFFFFFFFFFFFFFFFFFFFFFFFFFFFFFFFFFFFFFFFFFFFFFFFFFFFFFFFFF DUP3 SUB PUSH2 0x7B7 JUMPI PUSH2 0x7B6 PUSH2 0x6BB JUMP JUMPDEST JUMPDEST PUSH1 0x1 DUP3 ADD SWAP1 POP SWAP2 SWAP1 POP JUMP JUMPDEST PUSH0 DUP2 SWAP1 POP SWAP3 SWAP2 POP POP JUMP JUMPDEST PUSH0 DUP1 DUP3 ADD MSTORE POP JUMP JUMPDEST PUSH0 PUSH2 0x7E0 PUSH1 0x1 DUP4 PUSH2 0x7C2 JUMP JUMPDEST SWAP2 POP PUSH2 0x7EB DUP3 PUSH2 0x7CC JUMP JUMPDEST PUSH1 0x1 DUP3 ADD SWAP1 POP SWAP2 SWAP1 POP JUMP JUMPDEST PUSH0 DUP2 MLOAD SWAP1 POP SWAP2 SWAP1 POP JUMP JUMPDEST PUSH0 DUP2 SWAP1 POP SWAP3 SWAP2 POP POP JUMP JUMPDEST PUSH0 PUSH2 0x814 DUP3 PUSH2 0x7F6 JUMP JUMPDEST PUSH2 0x81E DUP2 DUP6 PUSH2 0x800 JUMP JUMPDEST SWAP4 POP PUSH2 0x82E DUP2 DUP6 PUSH1 0x20 DUP7 ADD PUSH2 0x460 JUMP JUMPDEST DUP1 DUP5 ADD SWAP2 POP POP SWAP3 SWAP2 POP POP JUMP JUMPDEST PUSH0 PUSH2 0x844 DUP3 PUSH2 0x7D4 JUMP JUMPDEST SWAP2 POP PUSH2 0x850 DUP3 DUP5 PUSH2 0x80A JUMP JUMPDEST SWAP2 POP DUP2 SWAP1 POP SWAP3 SWAP2 POP POP JUMP JUMPDEST PUSH32 0x600B5981380380925939F3000000000000000000000000000000000000000000 PUSH0 DUP3 ADD MSTORE POP JUMP JUMPDEST PUSH0 PUSH2 0x88F PUSH1 0xB DUP4 PUSH2 0x7C2 JUMP JUMPDEST SWAP2 POP PUSH2 0x89A DUP3 PUSH2 0x85B JUMP JUMPDEST PUSH1 0xB DUP3 ADD SWAP1 POP SWAP2 SWAP1 POP JUMP JUMPDEST PUSH0 PUSH2 0x8AF DUP3 PUSH2 0x883 JUMP JUMPDEST SWAP2 POP PUSH2 0x8BB DUP3 DUP5 PUSH2 0x80A JUMP JUMPDEST SWAP2 POP DUP2 SWAP1 POP SWAP3 SWAP2 POP POP JUMP JUMPDEST PUSH32 0x4445504C4F594D454E545F4641494C4544000000000000000000000000000000 PUSH0 DUP3 ADD MSTORE POP JUMP JUMPDEST PUSH0 PUSH2 0x8FA PUSH1 0x11 DUP4 PUSH2 0x450 JUMP JUMPDEST SWAP2 POP PUSH2 0x905 DUP3 PUSH2 0x8C6 JUMP JUMPDEST PUSH1 0x20 DUP3 ADD SWAP1 POP SWAP2 SWAP1 POP JUMP JUMPDEST PUSH0 PUSH1 0x20 DUP3 ADD SWAP1 POP DUP2 DUP2 SUB PUSH0 DUP4 ADD MSTORE PUSH2 0x927 DUP2 PUSH2 0x8EE JUMP JUMPDEST SWAP1 POP SWAP2 SWAP1 POP JUMP INVALID LOG2 PUSH5 0x6970667358 0x22 SLT KECCAK256 DUP4 SWAP13 0xB9 EQ PUSH23 0x4C37B0A6F0647191223935CA271802327ACAFC313A4B2B XOR REVERT DUP11 0xB8 PUSH5 0x736F6C6343 STOP ADDMOD BYTE STOP CALLER "
				},
				"gasEstimates": {
					"creation": {
						"codeDepositCost": "480800",
						"executionCost": "516",
						"totalCost": "481316"
					},
					"external": {
						"getSvg()": "infinite",
						"radialTemplatePtr()": "2527",
						"storeTemplate(bytes)": "infinite"
					}
				},
				"methodIdentifiers": {
					"getSvg()": "4dcd342d",
					"radialTemplatePtr()": "ff35b868",
					"storeTemplate(bytes)": "d1859735"
				}
			},
			"storageLayout": {
				"storage": [
					{
						"astId": 4,
						"contract": "contracts/MandalaSvg.sol:SvgRadialMandala",
						"label": "radialTemplatePtr",
						"offset": 0,
						"slot": "0",
						"type": "t_address"
					}
				],
				"types": {
					"t_address": {
						"encoding": "inplace",
						"label": "address",
						"numberOfBytes": "20"
					}
				}
			},
			"userdoc": {
				"kind": "user",
				"methods": {
					"getSvg()": {
						"notice": "Возвращает SVG с заменой одного fill='black' на fill='white'"
					},
					"storeTemplate(bytes)": {
						"notice": "Запись SVG радиального шаблона в SSTORE2"
					}
				},
				"version": 1
			}
		}
	}
}