{
	"data": {
		"bytecode": {
			"linkReferences": {},
			"object": "6080604052348015600e575f80fd5b50610d048061001c5f395ff3fe608060405234801561000f575f80fd5b5060043610610055575f3560e01c80630f4120fb1461005957806321cc42c81461008957806326954fe8146100a75780639d3bad7f146100c3578063dec4c1d4146100e1575b5f80fd5b610073600480360381019061006e91906107ad565b6100fd565b6040516100809190610838565b60405180910390f35b61009161021e565b60405161009e9190610897565b60405180910390f35b6100c160048036038101906100bc9190610960565b610241565b005b6100cb61028c565b6040516100d89190610897565b60405180910390f35b6100fb60048036038101906100f69190610960565b6102b1565b005b60605f6040518060600160405280603e8152602001610c91603e913990505f6040518060400160405280600681526020017f3c2f7376673e000000000000000000000000000000000000000000000000000081525090505f61019d6101805f8054906101000a900473ffffffffffffffffffffffffffffffffffffffff166102fb565b865f60028110610193576101926109a7565b5b6020020151610332565b90505f6101eb6101cd60015f9054906101000a900473ffffffffffffffffffffffffffffffffffffffff166102fb565b876001600281106101e1576101e06109a7565b5b6020020151610332565b9050838282856040516020016102049493929190610a0e565b604051602081830303815290604052945050505050919050565b5f8054906101000a900473ffffffffffffffffffffffffffffffffffffffff1681565b61024a81610539565b60015f6101000a81548173ffffffffffffffffffffffffffffffffffffffff021916908373ffffffffffffffffffffffffffffffffffffffff16021790555050565b60015f9054906101000a900473ffffffffffffffffffffffffffffffffffffffff1681565b6102ba81610539565b5f806101000a81548173ffffffffffffffffffffffffffffffffffffffff021916908373ffffffffffffffffffffffffffffffffffffffff16021790555050565b606061032b826001808573ffffffffffffffffffffffffffffffffffffffff163b6103269190610a81565b6105ff565b9050919050565b60605f8260ff160361034657829050610533565b5f8390505f6040518060400160405280600c81526020017f66696c6c3d27626c61636b27000000000000000000000000000000000000000081525090505f6040518060400160405280600c81526020017f66696c6c3d27776869746527000000000000000000000000000000000000000081525090505f5b825184516103cc9190610a81565b811161052b575f600190505f5b8451811015610487578481815181106103f5576103f46109a7565b5b602001015160f81c60f81b7effffffffffffffffffffffffffffffffffffffffffffffffffffffffffffff191686828561042f9190610ab4565b815181106104405761043f6109a7565b5b602001015160f81c60f81b7effffffffffffffffffffffffffffffffffffffffffffffffffffffffffffff19161461047a575f9150610487565b80806001019150506103d9565b508015610517575f5b8451811015610510578381815181106104ac576104ab6109a7565b5b602001015160f81c60f81b8682856104c49190610ab4565b815181106104d5576104d46109a7565b5b60200101907effffffffffffffffffffffffffffffffffffffffffffffffffffffffffffff191690815f1a9053508080600101915050610490565b505061052b565b50808061052390610ae7565b9150506103be565b508293505050505b92915050565b5f808260405160200161054c9190610b9c565b60405160208183030381529060405290505f8160405160200161056f9190610c07565b60405160208183030381529060405290508051602082015ff092505f73ffffffffffffffffffffffffffffffffffffffff168373ffffffffffffffffffffffffffffffffffffffff16036105f8576040517f08c379a00000000000000000000000000000000000000000000000000000000081526004016105ef90610c72565b60405180910390fd5b5050919050565b60606040519050601f19601f6020840101168101604052818152818360208301863c9392505050565b5f604051905090565b5f80fd5b5f80fd5b5f80fd5b5f601f19601f8301169050919050565b7f4e487b71000000000000000000000000000000000000000000000000000000005f52604160045260245ffd5b6106838261063d565b810181811067ffffffffffffffff821117156106a2576106a161064d565b5b80604052505050565b5f6106b4610628565b90506106c0828261067a565b919050565b5f67ffffffffffffffff8211156106df576106de61064d565b5b602082029050919050565b5f80fd5b5f60ff82169050919050565b610703816106ee565b811461070d575f80fd5b50565b5f8135905061071e816106fa565b92915050565b5f610736610731846106c5565b6106ab565b905080602084028301858111156107505761074f6106ea565b5b835b8181101561077957806107658882610710565b845260208401935050602081019050610752565b5050509392505050565b5f82601f83011261079757610796610639565b5b60026107a4848285610724565b91505092915050565b5f604082840312156107c2576107c1610631565b5b5f6107cf84828501610783565b91505092915050565b5f81519050919050565b5f82825260208201905092915050565b8281835e5f83830152505050565b5f61080a826107d8565b61081481856107e2565b93506108248185602086016107f2565b61082d8161063d565b840191505092915050565b5f6020820190508181035f8301526108508184610800565b905092915050565b5f73ffffffffffffffffffffffffffffffffffffffff82169050919050565b5f61088182610858565b9050919050565b61089181610877565b82525050565b5f6020820190506108aa5f830184610888565b92915050565b5f80fd5b5f67ffffffffffffffff8211156108ce576108cd61064d565b5b6108d78261063d565b9050602081019050919050565b828183375f83830152505050565b5f6109046108ff846108b4565b6106ab565b9050828152602081018484840111156109205761091f6108b0565b5b61092b8482856108e4565b509392505050565b5f82601f83011261094757610946610639565b5b81356109578482602086016108f2565b91505092915050565b5f6020828403121561097557610974610631565b5b5f82013567ffffffffffffffff81111561099257610991610635565b5b61099e84828501610933565b91505092915050565b7f4e487b71000000000000000000000000000000000000000000000000000000005f52603260045260245ffd5b5f81905092915050565b5f6109e8826107d8565b6109f281856109d4565b9350610a028185602086016107f2565b80840191505092915050565b5f610a1982876109de565b9150610a2582866109de565b9150610a3182856109de565b9150610a3d82846109de565b915081905095945050505050565b5f819050919050565b7f4e487b71000000000000000000000000000000000000000000000000000000005f52601160045260245ffd5b5f610a8b82610a4b565b9150610a9683610a4b565b9250828203905081811115610aae57610aad610a54565b5b92915050565b5f610abe82610a4b565b9150610ac983610a4b565b9250828201905080821115610ae157610ae0610a54565b5b92915050565b5f610af182610a4b565b91507fffffffffffffffffffffffffffffffffffffffffffffffffffffffffffffffff8203610b2357610b22610a54565b5b600182019050919050565b5f8082015250565b5f610b426001836109d4565b9150610b4d82610b2e565b600182019050919050565b5f81519050919050565b5f81905092915050565b5f610b7682610b58565b610b808185610b62565b9350610b908185602086016107f2565b80840191505092915050565b5f610ba682610b36565b9150610bb28284610b6c565b915081905092915050565b7f600b5981380380925939f30000000000000000000000000000000000000000005f82015250565b5f610bf1600b836109d4565b9150610bfc82610bbd565b600b82019050919050565b5f610c1182610be5565b9150610c1d8284610b6c565b915081905092915050565b7f4445504c4f594d454e545f4641494c45440000000000000000000000000000005f82015250565b5f610c5c6011836107e2565b9150610c6782610c28565b602082019050919050565b5f6020820190508181035f830152610c8981610c50565b905091905056fe3c73766720786d6c6e733d27687474703a2f2f7777772e77332e6f72672f323030302f737667272076696577426f783d273020302032303020313030273ea26469706673582212202c8222836e3d8e57eb00eb5cbce16d9d03d86cc69da0ab43db51ab43e3d6ba5a64736f6c634300081a0033",
			"opcodes": "PUSH1 0x80 PUSH1 0x40 MSTORE CALLVALUE DUP1 ISZERO PUSH1 0xE JUMPI PUSH0 DUP1 REVERT JUMPDEST POP PUSH2 0xD04 DUP1 PUSH2 0x1C PUSH0 CODECOPY PUSH0 RETURN INVALID PUSH1 0x80 PUSH1 0x40 MSTORE CALLVALUE DUP1 ISZERO PUSH2 0xF JUMPI PUSH0 DUP1 REVERT JUMPDEST POP PUSH1 0x4 CALLDATASIZE LT PUSH2 0x55 JUMPI PUSH0 CALLDATALOAD PUSH1 0xE0 SHR DUP1 PUSH4 0xF4120FB EQ PUSH2 0x59 JUMPI DUP1 PUSH4 0x21CC42C8 EQ PUSH2 0x89 JUMPI DUP1 PUSH4 0x26954FE8 EQ PUSH2 0xA7 JUMPI DUP1 PUSH4 0x9D3BAD7F EQ PUSH2 0xC3 JUMPI DUP1 PUSH4 0xDEC4C1D4 EQ PUSH2 0xE1 JUMPI JUMPDEST PUSH0 DUP1 REVERT JUMPDEST PUSH2 0x73 PUSH1 0x4 DUP1 CALLDATASIZE SUB DUP2 ADD SWAP1 PUSH2 0x6E SWAP2 SWAP1 PUSH2 0x7AD JUMP JUMPDEST PUSH2 0xFD JUMP JUMPDEST PUSH1 0x40 MLOAD PUSH2 0x80 SWAP2 SWAP1 PUSH2 0x838 JUMP JUMPDEST PUSH1 0x40 MLOAD DUP1 SWAP2 SUB SWAP1 RETURN JUMPDEST PUSH2 0x91 PUSH2 0x21E JUMP JUMPDEST PUSH1 0x40 MLOAD PUSH2 0x9E SWAP2 SWAP1 PUSH2 0x897 JUMP JUMPDEST PUSH1 0x40 MLOAD DUP1 SWAP2 SUB SWAP1 RETURN JUMPDEST PUSH2 0xC1 PUSH1 0x4 DUP1 CALLDATASIZE SUB DUP2 ADD SWAP1 PUSH2 0xBC SWAP2 SWAP1 PUSH2 0x960 JUMP JUMPDEST PUSH2 0x241 JUMP JUMPDEST STOP JUMPDEST PUSH2 0xCB PUSH2 0x28C JUMP JUMPDEST PUSH1 0x40 MLOAD PUSH2 0xD8 SWAP2 SWAP1 PUSH2 0x897 JUMP JUMPDEST PUSH1 0x40 MLOAD DUP1 SWAP2 SUB SWAP1 RETURN JUMPDEST PUSH2 0xFB PUSH1 0x4 DUP1 CALLDATASIZE SUB DUP2 ADD SWAP1 PUSH2 0xF6 SWAP2 SWAP1 PUSH2 0x960 JUMP JUMPDEST PUSH2 0x2B1 JUMP JUMPDEST STOP JUMPDEST PUSH1 0x60 PUSH0 PUSH1 0x40 MLOAD DUP1 PUSH1 0x60 ADD PUSH1 0x40 MSTORE DUP1 PUSH1 0x3E DUP2 MSTORE PUSH1 0x20 ADD PUSH2 0xC91 PUSH1 0x3E SWAP2 CODECOPY SWAP1 POP PUSH0 PUSH1 0x40 MLOAD DUP1 PUSH1 0x40 ADD PUSH1 0x40 MSTORE DUP1 PUSH1 0x6 DUP2 MSTORE PUSH1 0x20 ADD PUSH32 0x3C2F7376673E0000000000000000000000000000000000000000000000000000 DUP2 MSTORE POP SWAP1 POP PUSH0 PUSH2 0x19D PUSH2 0x180 PUSH0 DUP1 SLOAD SWAP1 PUSH2 0x100 EXP SWAP1 DIV PUSH20 0xFFFFFFFFFFFFFFFFFFFFFFFFFFFFFFFFFFFFFFFF AND PUSH2 0x2FB JUMP JUMPDEST DUP7 PUSH0 PUSH1 0x2 DUP2 LT PUSH2 0x193 JUMPI PUSH2 0x192 PUSH2 0x9A7 JUMP JUMPDEST JUMPDEST PUSH1 0x20 MUL ADD MLOAD PUSH2 0x332 JUMP JUMPDEST SWAP1 POP PUSH0 PUSH2 0x1EB PUSH2 0x1CD PUSH1 0x1 PUSH0 SWAP1 SLOAD SWAP1 PUSH2 0x100 EXP SWAP1 DIV PUSH20 0xFFFFFFFFFFFFFFFFFFFFFFFFFFFFFFFFFFFFFFFF AND PUSH2 0x2FB JUMP JUMPDEST DUP8 PUSH1 0x1 PUSH1 0x2 DUP2 LT PUSH2 0x1E1 JUMPI PUSH2 0x1E0 PUSH2 0x9A7 JUMP JUMPDEST JUMPDEST PUSH1 0x20 MUL ADD MLOAD PUSH2 0x332 JUMP JUMPDEST SWAP1 POP DUP4 DUP3 DUP3 DUP6 PUSH1 0x40 MLOAD PUSH1 0x20 ADD PUSH2 0x204 SWAP5 SWAP4 SWAP3 SWAP2 SWAP1 PUSH2 0xA0E JUMP JUMPDEST PUSH1 0x40 MLOAD PUSH1 0x20 DUP2 DUP4 SUB SUB DUP2 MSTORE SWAP1 PUSH1 0x40 MSTORE SWAP5 POP POP POP POP POP SWAP2 SWAP1 POP JUMP JUMPDEST PUSH0 DUP1 SLOAD SWAP1 PUSH2 0x100 EXP SWAP1 DIV PUSH20 0xFFFFFFFFFFFFFFFFFFFFFFFFFFFFFFFFFFFFFFFF AND DUP2 JUMP JUMPDEST PUSH2 0x24A DUP2 PUSH2 0x539 JUMP JUMPDEST PUSH1 0x1 PUSH0 PUSH2 0x100 EXP DUP2 SLOAD DUP2 PUSH20 0xFFFFFFFFFFFFFFFFFFFFFFFFFFFFFFFFFFFFFFFF MUL NOT AND SWAP1 DUP4 PUSH20 0xFFFFFFFFFFFFFFFFFFFFFFFFFFFFFFFFFFFFFFFF AND MUL OR SWAP1 SSTORE POP POP JUMP JUMPDEST PUSH1 0x1 PUSH0 SWAP1 SLOAD SWAP1 PUSH2 0x100 EXP SWAP1 DIV PUSH20 0xFFFFFFFFFFFFFFFFFFFFFFFFFFFFFFFFFFFFFFFF AND DUP2 JUMP JUMPDEST PUSH2 0x2BA DUP2 PUSH2 0x539 JUMP JUMPDEST PUSH0 DUP1 PUSH2 0x100 EXP DUP2 SLOAD DUP2 PUSH20 0xFFFFFFFFFFFFFFFFFFFFFFFFFFFFFFFFFFFFFFFF MUL NOT AND SWAP1 DUP4 PUSH20 0xFFFFFFFFFFFFFFFFFFFFFFFFFFFFFFFFFFFFFFFF AND MUL OR SWAP1 SSTORE POP POP JUMP JUMPDEST PUSH1 0x60 PUSH2 0x32B DUP3 PUSH1 0x1 DUP1 DUP6 PUSH20 0xFFFFFFFFFFFFFFFFFFFFFFFFFFFFFFFFFFFFFFFF AND EXTCODESIZE PUSH2 0x326 SWAP2 SWAP1 PUSH2 0xA81 JUMP JUMPDEST PUSH2 0x5FF JUMP JUMPDEST SWAP1 POP SWAP2 SWAP1 POP JUMP JUMPDEST PUSH1 0x60 PUSH0 DUP3 PUSH1 0xFF AND SUB PUSH2 0x346 JUMPI DUP3 SWAP1 POP PUSH2 0x533 JUMP JUMPDEST PUSH0 DUP4 SWAP1 POP PUSH0 PUSH1 0x40 MLOAD DUP1 PUSH1 0x40 ADD PUSH1 0x40 MSTORE DUP1 PUSH1 0xC DUP2 MSTORE PUSH1 0x20 ADD PUSH32 0x66696C6C3D27626C61636B270000000000000000000000000000000000000000 DUP2 MSTORE POP SWAP1 POP PUSH0 PUSH1 0x40 MLOAD DUP1 PUSH1 0x40 ADD PUSH1 0x40 MSTORE DUP1 PUSH1 0xC DUP2 MSTORE PUSH1 0x20 ADD PUSH32 0x66696C6C3D277768697465270000000000000000000000000000000000000000 DUP2 MSTORE POP SWAP1 POP PUSH0 JUMPDEST DUP3 MLOAD DUP5 MLOAD PUSH2 0x3CC SWAP2 SWAP1 PUSH2 0xA81 JUMP JUMPDEST DUP2 GT PUSH2 0x52B JUMPI PUSH0 PUSH1 0x1 SWAP1 POP PUSH0 JUMPDEST DUP5 MLOAD DUP2 LT ISZERO PUSH2 0x487 JUMPI DUP5 DUP2 DUP2 MLOAD DUP2 LT PUSH2 0x3F5 JUMPI PUSH2 0x3F4 PUSH2 0x9A7 JUMP JUMPDEST JUMPDEST PUSH1 0x20 ADD ADD MLOAD PUSH1 0xF8 SHR PUSH1 0xF8 SHL PUSH31 0xFFFFFFFFFFFFFFFFFFFFFFFFFFFFFFFFFFFFFFFFFFFFFFFFFFFFFFFFFFFFFF NOT AND DUP7 DUP3 DUP6 PUSH2 0x42F SWAP2 SWAP1 PUSH2 0xAB4 JUMP JUMPDEST DUP2 MLOAD DUP2 LT PUSH2 0x440 JUMPI PUSH2 0x43F PUSH2 0x9A7 JUMP JUMPDEST JUMPDEST PUSH1 0x20 ADD ADD MLOAD PUSH1 0xF8 SHR PUSH1 0xF8 SHL PUSH31 0xFFFFFFFFFFFFFFFFFFFFFFFFFFFFFFFFFFFFFFFFFFFFFFFFFFFFFFFFFFFFFF NOT AND EQ PUSH2 0x47A JUMPI PUSH0 SWAP2 POP PUSH2 0x487 JUMP JUMPDEST DUP1 DUP1 PUSH1 0x1 ADD SWAP2 POP POP PUSH2 0x3D9 JUMP JUMPDEST POP DUP1 ISZERO PUSH2 0x517 JUMPI PUSH0 JUMPDEST DUP5 MLOAD DUP2 LT ISZERO PUSH2 0x510 JUMPI DUP4 DUP2 DUP2 MLOAD DUP2 LT PUSH2 0x4AC JUMPI PUSH2 0x4AB PUSH2 0x9A7 JUMP JUMPDEST JUMPDEST PUSH1 0x20 ADD ADD MLOAD PUSH1 0xF8 SHR PUSH1 0xF8 SHL DUP7 DUP3 DUP6 PUSH2 0x4C4 SWAP2 SWAP1 PUSH2 0xAB4 JUMP JUMPDEST DUP2 MLOAD DUP2 LT PUSH2 0x4D5 JUMPI PUSH2 0x4D4 PUSH2 0x9A7 JUMP JUMPDEST JUMPDEST PUSH1 0x20 ADD ADD SWAP1 PUSH31 0xFFFFFFFFFFFFFFFFFFFFFFFFFFFFFFFFFFFFFFFFFFFFFFFFFFFFFFFFFFFFFF NOT AND SWAP1 DUP2 PUSH0 BYTE SWAP1 MSTORE8 POP DUP1 DUP1 PUSH1 0x1 ADD SWAP2 POP POP PUSH2 0x490 JUMP JUMPDEST POP POP PUSH2 0x52B JUMP JUMPDEST POP DUP1 DUP1 PUSH2 0x523 SWAP1 PUSH2 0xAE7 JUMP JUMPDEST SWAP2 POP POP PUSH2 0x3BE JUMP JUMPDEST POP DUP3 SWAP4 POP POP POP POP JUMPDEST SWAP3 SWAP2 POP POP JUMP JUMPDEST PUSH0 DUP1 DUP3 PUSH1 0x40 MLOAD PUSH1 0x20 ADD PUSH2 0x54C SWAP2 SWAP1 PUSH2 0xB9C JUMP JUMPDEST PUSH1 0x40 MLOAD PUSH1 0x20 DUP2 DUP4 SUB SUB DUP2 MSTORE SWAP1 PUSH1 0x40 MSTORE SWAP1 POP PUSH0 DUP2 PUSH1 0x40 MLOAD PUSH1 0x20 ADD PUSH2 0x56F SWAP2 SWAP1 PUSH2 0xC07 JUMP JUMPDEST PUSH1 0x40 MLOAD PUSH1 0x20 DUP2 DUP4 SUB SUB DUP2 MSTORE SWAP1 PUSH1 0x40 MSTORE SWAP1 POP DUP1 MLOAD PUSH1 0x20 DUP3 ADD PUSH0 CREATE SWAP3 POP PUSH0 PUSH20 0xFFFFFFFFFFFFFFFFFFFFFFFFFFFFFFFFFFFFFFFF AND DUP4 PUSH20 0xFFFFFFFFFFFFFFFFFFFFFFFFFFFFFFFFFFFFFFFF AND SUB PUSH2 0x5F8 JUMPI PUSH1 0x40 MLOAD PUSH32 0x8C379A000000000000000000000000000000000000000000000000000000000 DUP2 MSTORE PUSH1 0x4 ADD PUSH2 0x5EF SWAP1 PUSH2 0xC72 JUMP JUMPDEST PUSH1 0x40 MLOAD DUP1 SWAP2 SUB SWAP1 REVERT JUMPDEST POP POP SWAP2 SWAP1 POP JUMP JUMPDEST PUSH1 0x60 PUSH1 0x40 MLOAD SWAP1 POP PUSH1 0x1F NOT PUSH1 0x1F PUSH1 0x20 DUP5 ADD ADD AND DUP2 ADD PUSH1 0x40 MSTORE DUP2 DUP2 MSTORE DUP2 DUP4 PUSH1 0x20 DUP4 ADD DUP7 EXTCODECOPY SWAP4 SWAP3 POP POP POP JUMP JUMPDEST PUSH0 PUSH1 0x40 MLOAD SWAP1 POP SWAP1 JUMP JUMPDEST PUSH0 DUP1 REVERT JUMPDEST PUSH0 DUP1 REVERT JUMPDEST PUSH0 DUP1 REVERT JUMPDEST PUSH0 PUSH1 0x1F NOT PUSH1 0x1F DUP4 ADD AND SWAP1 POP SWAP2 SWAP1 POP JUMP JUMPDEST PUSH32 0x4E487B7100000000000000000000000000000000000000000000000000000000 PUSH0 MSTORE PUSH1 0x41 PUSH1 0x4 MSTORE PUSH1 0x24 PUSH0 REVERT JUMPDEST PUSH2 0x683 DUP3 PUSH2 0x63D JUMP JUMPDEST DUP2 ADD DUP2 DUP2 LT PUSH8 0xFFFFFFFFFFFFFFFF DUP3 GT OR ISZERO PUSH2 0x6A2 JUMPI PUSH2 0x6A1 PUSH2 0x64D JUMP JUMPDEST JUMPDEST DUP1 PUSH1 0x40 MSTORE POP POP POP JUMP JUMPDEST PUSH0 PUSH2 0x6B4 PUSH2 0x628 JUMP JUMPDEST SWAP1 POP PUSH2 0x6C0 DUP3 DUP3 PUSH2 0x67A JUMP JUMPDEST SWAP2 SWAP1 POP JUMP JUMPDEST PUSH0 PUSH8 0xFFFFFFFFFFFFFFFF DUP3 GT ISZERO PUSH2 0x6DF JUMPI PUSH2 0x6DE PUSH2 0x64D JUMP JUMPDEST JUMPDEST PUSH1 0x20 DUP3 MUL SWAP1 POP SWAP2 SWAP1 POP JUMP JUMPDEST PUSH0 DUP1 REVERT JUMPDEST PUSH0 PUSH1 0xFF DUP3 AND SWAP1 POP SWAP2 SWAP1 POP JUMP JUMPDEST PUSH2 0x703 DUP2 PUSH2 0x6EE JUMP JUMPDEST DUP2 EQ PUSH2 0x70D JUMPI PUSH0 DUP1 REVERT JUMPDEST POP JUMP JUMPDEST PUSH0 DUP2 CALLDATALOAD SWAP1 POP PUSH2 0x71E DUP2 PUSH2 0x6FA JUMP JUMPDEST SWAP3 SWAP2 POP POP JUMP JUMPDEST PUSH0 PUSH2 0x736 PUSH2 0x731 DUP5 PUSH2 0x6C5 JUMP JUMPDEST PUSH2 0x6AB JUMP JUMPDEST SWAP1 POP DUP1 PUSH1 0x20 DUP5 MUL DUP4 ADD DUP6 DUP2 GT ISZERO PUSH2 0x750 JUMPI PUSH2 0x74F PUSH2 0x6EA JUMP JUMPDEST JUMPDEST DUP4 JUMPDEST DUP2 DUP2 LT ISZERO PUSH2 0x779 JUMPI DUP1 PUSH2 0x765 DUP9 DUP3 PUSH2 0x710 JUMP JUMPDEST DUP5 MSTORE PUSH1 0x20 DUP5 ADD SWAP4 POP POP PUSH1 0x20 DUP2 ADD SWAP1 POP PUSH2 0x752 JUMP JUMPDEST POP POP POP SWAP4 SWAP3 POP POP POP JUMP JUMPDEST PUSH0 DUP3 PUSH1 0x1F DUP4 ADD SLT PUSH2 0x797 JUMPI PUSH2 0x796 PUSH2 0x639 JUMP JUMPDEST JUMPDEST PUSH1 0x2 PUSH2 0x7A4 DUP5 DUP3 DUP6 PUSH2 0x724 JUMP JUMPDEST SWAP2 POP POP SWAP3 SWAP2 POP POP JUMP JUMPDEST PUSH0 PUSH1 0x40 DUP3 DUP5 SUB SLT ISZERO PUSH2 0x7C2 JUMPI PUSH2 0x7C1 PUSH2 0x631 JUMP JUMPDEST JUMPDEST PUSH0 PUSH2 0x7CF DUP5 DUP3 DUP6 ADD PUSH2 0x783 JUMP JUMPDEST SWAP2 POP POP SWAP3 SWAP2 POP POP JUMP JUMPDEST PUSH0 DUP2 MLOAD SWAP1 POP SWAP2 SWAP1 POP JUMP JUMPDEST PUSH0 DUP3 DUP3 MSTORE PUSH1 0x20 DUP3 ADD SWAP1 POP SWAP3 SWAP2 POP POP JUMP JUMPDEST DUP3 DUP2 DUP4 MCOPY PUSH0 DUP4 DUP4 ADD MSTORE POP POP POP JUMP JUMPDEST PUSH0 PUSH2 0x80A DUP3 PUSH2 0x7D8 JUMP JUMPDEST PUSH2 0x814 DUP2 DUP6 PUSH2 0x7E2 JUMP JUMPDEST SWAP4 POP PUSH2 0x824 DUP2 DUP6 PUSH1 0x20 DUP7 ADD PUSH2 0x7F2 JUMP JUMPDEST PUSH2 0x82D DUP2 PUSH2 0x63D JUMP JUMPDEST DUP5 ADD SWAP2 POP POP SWAP3 SWAP2 POP POP JUMP JUMPDEST PUSH0 PUSH1 0x20 DUP3 ADD SWAP1 POP DUP2 DUP2 SUB PUSH0 DUP4 ADD MSTORE PUSH2 0x850 DUP2 DUP5 PUSH2 0x800 JUMP JUMPDEST SWAP1 POP SWAP3 SWAP2 POP POP JUMP JUMPDEST PUSH0 PUSH20 0xFFFFFFFFFFFFFFFFFFFFFFFFFFFFFFFFFFFFFFFF DUP3 AND SWAP1 POP SWAP2 SWAP1 POP JUMP JUMPDEST PUSH0 PUSH2 0x881 DUP3 PUSH2 0x858 JUMP JUMPDEST SWAP1 POP SWAP2 SWAP1 POP JUMP JUMPDEST PUSH2 0x891 DUP2 PUSH2 0x877 JUMP JUMPDEST DUP3 MSTORE POP POP JUMP JUMPDEST PUSH0 PUSH1 0x20 DUP3 ADD SWAP1 POP PUSH2 0x8AA PUSH0 DUP4 ADD DUP5 PUSH2 0x888 JUMP JUMPDEST SWAP3 SWAP2 POP POP JUMP JUMPDEST PUSH0 DUP1 REVERT JUMPDEST PUSH0 PUSH8 0xFFFFFFFFFFFFFFFF DUP3 GT ISZERO PUSH2 0x8CE JUMPI PUSH2 0x8CD PUSH2 0x64D JUMP JUMPDEST JUMPDEST PUSH2 0x8D7 DUP3 PUSH2 0x63D JUMP JUMPDEST SWAP1 POP PUSH1 0x20 DUP2 ADD SWAP1 POP SWAP2 SWAP1 POP JUMP JUMPDEST DUP3 DUP2 DUP4 CALLDATACOPY PUSH0 DUP4 DUP4 ADD MSTORE POP POP POP JUMP JUMPDEST PUSH0 PUSH2 0x904 PUSH2 0x8FF DUP5 PUSH2 0x8B4 JUMP JUMPDEST PUSH2 0x6AB JUMP JUMPDEST SWAP1 POP DUP3 DUP2 MSTORE PUSH1 0x20 DUP2 ADD DUP5 DUP5 DUP5 ADD GT ISZERO PUSH2 0x920 JUMPI PUSH2 0x91F PUSH2 0x8B0 JUMP JUMPDEST JUMPDEST PUSH2 0x92B DUP5 DUP3 DUP6 PUSH2 0x8E4 JUMP JUMPDEST POP SWAP4 SWAP3 POP POP POP JUMP JUMPDEST PUSH0 DUP3 PUSH1 0x1F DUP4 ADD SLT PUSH2 0x947 JUMPI PUSH2 0x946 PUSH2 0x639 JUMP JUMPDEST JUMPDEST DUP2 CALLDATALOAD PUSH2 0x957 DUP5 DUP3 PUSH1 0x20 DUP7 ADD PUSH2 0x8F2 JUMP JUMPDEST SWAP2 POP POP SWAP3 SWAP2 POP POP JUMP JUMPDEST PUSH0 PUSH1 0x20 DUP3 DUP5 SUB SLT ISZERO PUSH2 0x975 JUMPI PUSH2 0x974 PUSH2 0x631 JUMP JUMPDEST JUMPDEST PUSH0 DUP3 ADD CALLDATALOAD PUSH8 0xFFFFFFFFFFFFFFFF DUP2 GT ISZERO PUSH2 0x992 JUMPI PUSH2 0x991 PUSH2 0x635 JUMP JUMPDEST JUMPDEST PUSH2 0x99E DUP5 DUP3 DUP6 ADD PUSH2 0x933 JUMP JUMPDEST SWAP2 POP POP SWAP3 SWAP2 POP POP JUMP JUMPDEST PUSH32 0x4E487B7100000000000000000000000000000000000000000000000000000000 PUSH0 MSTORE PUSH1 0x32 PUSH1 0x4 MSTORE PUSH1 0x24 PUSH0 REVERT JUMPDEST PUSH0 DUP2 SWAP1 POP SWAP3 SWAP2 POP POP JUMP JUMPDEST PUSH0 PUSH2 0x9E8 DUP3 PUSH2 0x7D8 JUMP JUMPDEST PUSH2 0x9F2 DUP2 DUP6 PUSH2 0x9D4 JUMP JUMPDEST SWAP4 POP PUSH2 0xA02 DUP2 DUP6 PUSH1 0x20 DUP7 ADD PUSH2 0x7F2 JUMP JUMPDEST DUP1 DUP5 ADD SWAP2 POP POP SWAP3 SWAP2 POP POP JUMP JUMPDEST PUSH0 PUSH2 0xA19 DUP3 DUP8 PUSH2 0x9DE JUMP JUMPDEST SWAP2 POP PUSH2 0xA25 DUP3 DUP7 PUSH2 0x9DE JUMP JUMPDEST SWAP2 POP PUSH2 0xA31 DUP3 DUP6 PUSH2 0x9DE JUMP JUMPDEST SWAP2 POP PUSH2 0xA3D DUP3 DUP5 PUSH2 0x9DE JUMP JUMPDEST SWAP2 POP DUP2 SWAP1 POP SWAP6 SWAP5 POP POP POP POP POP JUMP JUMPDEST PUSH0 DUP2 SWAP1 POP SWAP2 SWAP1 POP JUMP JUMPDEST PUSH32 0x4E487B7100000000000000000000000000000000000000000000000000000000 PUSH0 MSTORE PUSH1 0x11 PUSH1 0x4 MSTORE PUSH1 0x24 PUSH0 REVERT JUMPDEST PUSH0 PUSH2 0xA8B DUP3 PUSH2 0xA4B JUMP JUMPDEST SWAP2 POP PUSH2 0xA96 DUP4 PUSH2 0xA4B JUMP JUMPDEST SWAP3 POP DUP3 DUP3 SUB SWAP1 POP DUP2 DUP2 GT ISZERO PUSH2 0xAAE JUMPI PUSH2 0xAAD PUSH2 0xA54 JUMP JUMPDEST JUMPDEST SWAP3 SWAP2 POP POP JUMP JUMPDEST PUSH0 PUSH2 0xABE DUP3 PUSH2 0xA4B JUMP JUMPDEST SWAP2 POP PUSH2 0xAC9 DUP4 PUSH2 0xA4B JUMP JUMPDEST SWAP3 POP DUP3 DUP3 ADD SWAP1 POP DUP1 DUP3 GT ISZERO PUSH2 0xAE1 JUMPI PUSH2 0xAE0 PUSH2 0xA54 JUMP JUMPDEST JUMPDEST SWAP3 SWAP2 POP POP JUMP JUMPDEST PUSH0 PUSH2 0xAF1 DUP3 PUSH2 0xA4B JUMP JUMPDEST SWAP2 POP PUSH32 0xFFFFFFFFFFFFFFFFFFFFFFFFFFFFFFFFFFFFFFFFFFFFFFFFFFFFFFFFFFFFFFFF DUP3 SUB PUSH2 0xB23 JUMPI PUSH2 0xB22 PUSH2 0xA54 JUMP JUMPDEST JUMPDEST PUSH1 0x1 DUP3 ADD SWAP1 POP SWAP2 SWAP1 POP JUMP JUMPDEST PUSH0 DUP1 DUP3 ADD MSTORE POP JUMP JUMPDEST PUSH0 PUSH2 0xB42 PUSH1 0x1 DUP4 PUSH2 0x9D4 JUMP JUMPDEST SWAP2 POP PUSH2 0xB4D DUP3 PUSH2 0xB2E JUMP JUMPDEST PUSH1 0x1 DUP3 ADD SWAP1 POP SWAP2 SWAP1 POP JUMP JUMPDEST PUSH0 DUP2 MLOAD SWAP1 POP SWAP2 SWAP1 POP JUMP JUMPDEST PUSH0 DUP2 SWAP1 POP SWAP3 SWAP2 POP POP JUMP JUMPDEST PUSH0 PUSH2 0xB76 DUP3 PUSH2 0xB58 JUMP JUMPDEST PUSH2 0xB80 DUP2 DUP6 PUSH2 0xB62 JUMP JUMPDEST SWAP4 POP PUSH2 0xB90 DUP2 DUP6 PUSH1 0x20 DUP7 ADD PUSH2 0x7F2 JUMP JUMPDEST DUP1 DUP5 ADD SWAP2 POP POP SWAP3 SWAP2 POP POP JUMP JUMPDEST PUSH0 PUSH2 0xBA6 DUP3 PUSH2 0xB36 JUMP JUMPDEST SWAP2 POP PUSH2 0xBB2 DUP3 DUP5 PUSH2 0xB6C JUMP JUMPDEST SWAP2 POP DUP2 SWAP1 POP SWAP3 SWAP2 POP POP JUMP JUMPDEST PUSH32 0x600B5981380380925939F3000000000000000000000000000000000000000000 PUSH0 DUP3 ADD MSTORE POP JUMP JUMPDEST PUSH0 PUSH2 0xBF1 PUSH1 0xB DUP4 PUSH2 0x9D4 JUMP JUMPDEST SWAP2 POP PUSH2 0xBFC DUP3 PUSH2 0xBBD JUMP JUMPDEST PUSH1 0xB DUP3 ADD SWAP1 POP SWAP2 SWAP1 POP JUMP JUMPDEST PUSH0 PUSH2 0xC11 DUP3 PUSH2 0xBE5 JUMP JUMPDEST SWAP2 POP PUSH2 0xC1D DUP3 DUP5 PUSH2 0xB6C JUMP JUMPDEST SWAP2 POP DUP2 SWAP1 POP SWAP3 SWAP2 POP POP JUMP JUMPDEST PUSH32 0x4445504C4F594D454E545F4641494C4544000000000000000000000000000000 PUSH0 DUP3 ADD MSTORE POP JUMP JUMPDEST PUSH0 PUSH2 0xC5C PUSH1 0x11 DUP4 PUSH2 0x7E2 JUMP JUMPDEST SWAP2 POP PUSH2 0xC67 DUP3 PUSH2 0xC28 JUMP JUMPDEST PUSH1 0x20 DUP3 ADD SWAP1 POP SWAP2 SWAP1 POP JUMP JUMPDEST PUSH0 PUSH1 0x20 DUP3 ADD SWAP1 POP DUP2 DUP2 SUB PUSH0 DUP4 ADD MSTORE PUSH2 0xC89 DUP2 PUSH2 0xC50 JUMP JUMPDEST SWAP1 POP SWAP2 SWAP1 POP JUMP INVALID EXTCODECOPY PUSH20 0x766720786D6C6E733D27687474703A2F2F777777 0x2E PUSH24 0x332E6F72672F323030302F737667272076696577426F783D 0x27 ADDRESS KECCAK256 ADDRESS KECCAK256 ORIGIN ADDRESS ADDRESS KECCAK256 BALANCE ADDRESS ADDRESS 0x27 RETURNDATACOPY LOG2 PUSH5 0x6970667358 0x22 SLT KECCAK256 0x2C DUP3 0x22 DUP4 PUSH15 0x3D8E57EB00EB5CBCE16D9D03D86CC6 SWAP14 LOG0 0xAB NUMBER 0xDB MLOAD 0xAB NUMBER 0xE3 0xD6 0xBA GAS PUSH5 0x736F6C6343 STOP ADDMOD BYTE STOP CALLER "
		},
		"gasEstimates": {
			"creation": {
				"codeDepositCost": "666400",
				"executionCost": "700",
				"totalCost": "667100"
			},
			"external": {
				"getSvg(uint8[2])": "infinite",
				"leftPtr()": "2505",
				"rightPtr()": "2552",
				"storeLeft(bytes)": "infinite",
				"storeRight(bytes)": "infinite"
			},
			"internal": {
				"_setWhite(string memory,uint8)": "infinite"
			}
		},
		"methodIdentifiers": {
			"getSvg(uint8[2])": "0f4120fb",
			"leftPtr()": "21cc42c8",
			"rightPtr()": "9d3bad7f",
			"storeLeft(bytes)": "dec4c1d4",
			"storeRight(bytes)": "26954fe8"
		}
	},
	"abi": [
		{
			"inputs": [
				{
					"internalType": "uint8[2]",
					"name": "config",
					"type": "uint8[2]"
				}
			],
			"name": "getSvg",
			"outputs": [
				{
					"internalType": "string",
					"name": "",
					"type": "string"
				}
			],
			"stateMutability": "view",
			"type": "function"
		},
		{
			"inputs": [],
			"name": "leftPtr",
			"outputs": [
				{
					"internalType": "address",
					"name": "",
					"type": "address"
				}
			],
			"stateMutability": "view",
			"type": "function"
		},
		{
			"inputs": [],
			"name": "rightPtr",
			"outputs": [
				{
					"internalType": "address",
					"name": "",
					"type": "address"
				}
			],
			"stateMutability": "view",
			"type": "function"
		},
		{
			"inputs": [
				{
					"internalType": "bytes",
					"name": "data",
					"type": "bytes"
				}
			],
			"name": "storeLeft",
			"outputs": [],
			"stateMutability": "nonpayable",
			"type": "function"
		},
		{
			"inputs": [
				{
					"internalType": "bytes",
					"name": "data",
					"type": "bytes"
				}
			],
			"name": "storeRight",
			"outputs": [],
			"stateMutability": "nonpayable",
			"type": "function"
		}
	]
}